{
  "_format": "hh-sol-artifact-1",
  "contractName": "ERC20Mutable",
  "sourceName": "contracts/ERC20Mutable.sol",
  "abi": [
    {
      "inputs": [
        {
          "internalType": "string",
          "name": "name_",
          "type": "string"
        },
        {
          "internalType": "string",
          "name": "symbol_",
          "type": "string"
        }
      ],
      "stateMutability": "nonpayable",
      "type": "constructor"
    },
    {
      "anonymous": false,
      "inputs": [
        {
          "indexed": true,
          "internalType": "address",
          "name": "owner",
          "type": "address"
        },
        {
          "indexed": true,
          "internalType": "address",
          "name": "spender",
          "type": "address"
        },
        {
          "indexed": false,
          "internalType": "uint256",
          "name": "value",
          "type": "uint256"
        }
      ],
      "name": "Approval",
      "type": "event"
    },
    {
      "anonymous": false,
      "inputs": [
        {
          "indexed": true,
          "internalType": "address",
          "name": "from",
          "type": "address"
        },
        {
          "indexed": true,
          "internalType": "address",
          "name": "to",
          "type": "address"
        },
        {
          "indexed": false,
          "internalType": "uint256",
          "name": "value",
          "type": "uint256"
        }
      ],
      "name": "Transfer",
      "type": "event"
    },
    {
      "inputs": [
        {
          "internalType": "address",
          "name": "owner",
          "type": "address"
        },
        {
          "internalType": "address",
          "name": "spender",
          "type": "address"
        }
      ],
      "name": "allowance",
      "outputs": [
        {
          "internalType": "uint256",
          "name": "",
          "type": "uint256"
        }
      ],
      "stateMutability": "view",
      "type": "function"
    },
    {
      "inputs": [
        {
          "internalType": "address",
          "name": "spender",
          "type": "address"
        },
        {
          "internalType": "uint256",
          "name": "value",
          "type": "uint256"
        }
      ],
      "name": "approve",
      "outputs": [
        {
          "internalType": "bool",
          "name": "",
          "type": "bool"
        }
      ],
      "stateMutability": "nonpayable",
      "type": "function"
    },
    {
      "inputs": [
        {
          "internalType": "address",
          "name": "owner",
          "type": "address"
        }
      ],
      "name": "balanceOf",
      "outputs": [
        {
          "internalType": "uint256",
          "name": "",
          "type": "uint256"
        }
      ],
      "stateMutability": "view",
      "type": "function"
    },
    {
      "inputs": [
        {
          "internalType": "address",
          "name": "spender",
          "type": "address"
        },
        {
          "internalType": "uint256",
          "name": "subtractedValue",
          "type": "uint256"
        }
      ],
      "name": "decreaseAllowance",
      "outputs": [
        {
          "internalType": "bool",
          "name": "",
          "type": "bool"
        }
      ],
      "stateMutability": "nonpayable",
      "type": "function"
    },
    {
      "inputs": [
        {
          "internalType": "address",
          "name": "spender",
          "type": "address"
        },
        {
          "internalType": "uint256",
          "name": "addedValue",
          "type": "uint256"
        }
      ],
      "name": "increaseAllowance",
      "outputs": [
        {
          "internalType": "bool",
          "name": "",
          "type": "bool"
        }
      ],
      "stateMutability": "nonpayable",
      "type": "function"
    },
    {
      "inputs": [
        {
          "internalType": "address",
          "name": "owner",
          "type": "address"
        },
        {
          "internalType": "address",
          "name": "spender",
          "type": "address"
        },
        {
          "internalType": "uint256",
          "name": "addedValue",
          "type": "uint256"
        }
      ],
      "name": "increaseAllowanceFor",
      "outputs": [
        {
          "internalType": "bool",
          "name": "",
          "type": "bool"
        }
      ],
      "stateMutability": "nonpayable",
      "type": "function"
    },
    {
      "inputs": [],
      "name": "name",
      "outputs": [
        {
          "internalType": "string",
          "name": "",
          "type": "string"
        }
      ],
      "stateMutability": "view",
      "type": "function"
    },
    {
      "inputs": [],
      "name": "symbol",
      "outputs": [
        {
          "internalType": "string",
          "name": "",
          "type": "string"
        }
      ],
      "stateMutability": "view",
      "type": "function"
    },
    {
      "inputs": [],
      "name": "totalSupply",
      "outputs": [
        {
          "internalType": "uint256",
          "name": "",
          "type": "uint256"
        }
      ],
      "stateMutability": "view",
      "type": "function"
    },
    {
      "inputs": [
        {
          "internalType": "address",
          "name": "to",
          "type": "address"
        },
        {
          "internalType": "uint256",
          "name": "value",
          "type": "uint256"
        }
      ],
      "name": "transfer",
      "outputs": [
        {
          "internalType": "bool",
          "name": "",
          "type": "bool"
        }
      ],
      "stateMutability": "nonpayable",
      "type": "function"
    },
    {
      "inputs": [
        {
          "internalType": "address",
          "name": "from",
          "type": "address"
        },
        {
          "internalType": "address",
          "name": "to",
          "type": "address"
        },
        {
          "internalType": "uint256",
          "name": "value",
          "type": "uint256"
        }
      ],
      "name": "transferFrom",
      "outputs": [
        {
          "internalType": "bool",
          "name": "",
          "type": "bool"
        }
      ],
      "stateMutability": "nonpayable",
      "type": "function"
    }
  ],
  "bytecode": "0x60806040523480156200001157600080fd5b506040516200175e3803806200175e8339818101604052810190620000379190620001eb565b81600390805190602001906200004f929190620000bd565b50806004908051906020019062000068929190620000bd565b50600060028190555060008060003373ffffffffffffffffffffffffffffffffffffffff1673ffffffffffffffffffffffffffffffffffffffff168152602001908152602001600020819055505050620003f4565b828054620000cb9062000305565b90600052602060002090601f016020900481019282620000ef57600085556200013b565b82601f106200010a57805160ff19168380011785556200013b565b828001600101855582156200013b579182015b828111156200013a5782518255916020019190600101906200011d565b5b5090506200014a91906200014e565b5090565b5b80821115620001695760008160009055506001016200014f565b5090565b6000620001846200017e8462000299565b62000270565b905082815260208101848484011115620001a357620001a2620003d4565b5b620001b0848285620002cf565b509392505050565b600082601f830112620001d057620001cf620003cf565b5b8151620001e28482602086016200016d565b91505092915050565b60008060408385031215620002055762000204620003de565b5b600083015167ffffffffffffffff811115620002265762000225620003d9565b5b6200023485828601620001b8565b925050602083015167ffffffffffffffff811115620002585762000257620003d9565b5b6200026685828601620001b8565b9150509250929050565b60006200027c6200028f565b90506200028a82826200033b565b919050565b6000604051905090565b600067ffffffffffffffff821115620002b757620002b6620003a0565b5b620002c282620003e3565b9050602081019050919050565b60005b83811015620002ef578082015181840152602081019050620002d2565b83811115620002ff576000848401525b50505050565b600060028204905060018216806200031e57607f821691505b6020821081141562000335576200033462000371565b5b50919050565b6200034682620003e3565b810181811067ffffffffffffffff82111715620003685762000367620003a0565b5b80604052505050565b7f4e487b7100000000000000000000000000000000000000000000000000000000600052602260045260246000fd5b7f4e487b7100000000000000000000000000000000000000000000000000000000600052604160045260246000fd5b600080fd5b600080fd5b600080fd5b600080fd5b6000601f19601f8301169050919050565b61135a80620004046000396000f3fe608060405234801561001057600080fd5b50600436106100a95760003560e01c806370a082311161007157806370a082311461017a57806370d32684146101aa57806395d89b41146101da578063a457c2d7146101f8578063a9059cbb14610228578063dd62ed3e14610258576100a9565b806306fdde03146100ae578063095ea7b3146100cc57806318160ddd146100fc57806323b872dd1461011a578063395093511461014a575b600080fd5b6100b6610288565b6040516100c39190610f29565b60405180910390f35b6100e660048036038101906100e19190610dff565b61031a565b6040516100f39190610f0e565b60405180910390f35b610104610331565b6040516101119190611027565b60405180910390f35b610134600480360381019061012f9190610dac565b61033b565b6040516101419190610f0e565b60405180910390f35b610164600480360381019061015f9190610dff565b61044f565b6040516101719190610f0e565b60405180910390f35b610194600480360381019061018f9190610d3f565b6104f4565b6040516101a19190611027565b60405180910390f35b6101c460048036038101906101bf9190610dac565b61053c565b6040516101d19190610f0e565b60405180910390f35b6101e26105e2565b6040516101ef9190610f29565b60405180910390f35b610212600480360381019061020d9190610dff565b610674565b60405161021f9190610f0e565b60405180910390f35b610242600480360381019061023d9190610dff565b610719565b60405161024f9190610f0e565b60405180910390f35b610272600480360381019061026d9190610d6c565b610730565b60405161027f9190611027565b60405180910390f35b60606003805461029790611163565b80601f01602080910402602001604051908101604052809291908181526020018280546102c390611163565b80156103105780601f106102e557610100808354040283529160200191610310565b820191906000526020600020905b8154815290600101906020018083116102f357829003601f168201915b5050505050905090565b60006103273384846107b7565b6001905092915050565b6000600254905090565b6000610348848484610982565b6103886040518060400160405280600c81526020017f7472616e7366657246726f6d00000000000000000000000000000000000000008152508533610b82565b6104446040518060400160405280601681526020017f63757272656e7420616c6c6f77616e63652c2073756200000000000000000000815250600160008773ffffffffffffffffffffffffffffffffffffffff1673ffffffffffffffffffffffffffffffffffffffff16815260200190815260200160002060003373ffffffffffffffffffffffffffffffffffffffff1673ffffffffffffffffffffffffffffffffffffffff1681526020019081526020016000205484610c21565b600190509392505050565b60006104ea33846104e585600160003373ffffffffffffffffffffffffffffffffffffffff1673ffffffffffffffffffffffffffffffffffffffff16815260200190815260200160002060008973ffffffffffffffffffffffffffffffffffffffff1673ffffffffffffffffffffffffffffffffffffffff16815260200190815260200160002054610cc090919063ffffffff16565b6107b7565b6001905092915050565b60008060008373ffffffffffffffffffffffffffffffffffffffff1673ffffffffffffffffffffffffffffffffffffffff168152602001908152602001600020549050919050565b60006105d784846105d285600160003373ffffffffffffffffffffffffffffffffffffffff1673ffffffffffffffffffffffffffffffffffffffff16815260200190815260200160002060008973ffffffffffffffffffffffffffffffffffffffff1673ffffffffffffffffffffffffffffffffffffffff16815260200190815260200160002054610cc090919063ffffffff16565b6107b7565b600190509392505050565b6060600480546105f190611163565b80601f016020809104026020016040519081016040528092919081815260200182805461061d90611163565b801561066a5780601f1061063f5761010080835404028352916020019161066a565b820191906000526020600020905b81548152906001019060200180831161064d57829003601f168201915b5050505050905090565b600061070f338461070a85600160003373ffffffffffffffffffffffffffffffffffffffff1673ffffffffffffffffffffffffffffffffffffffff16815260200190815260200160002060008973ffffffffffffffffffffffffffffffffffffffff1673ffffffffffffffffffffffffffffffffffffffff16815260200190815260200160002054610cd690919063ffffffff16565b6107b7565b6001905092915050565b6000610726338484610982565b6001905092915050565b6000600160008473ffffffffffffffffffffffffffffffffffffffff1673ffffffffffffffffffffffffffffffffffffffff16815260200190815260200160002060008373ffffffffffffffffffffffffffffffffffffffff1673ffffffffffffffffffffffffffffffffffffffff16815260200190815260200160002054905092915050565b600073ffffffffffffffffffffffffffffffffffffffff168373ffffffffffffffffffffffffffffffffffffffff161415610827576040517f08c379a000000000000000000000000000000000000000000000000000000000815260040161081e90611007565b60405180910390fd5b600073ffffffffffffffffffffffffffffffffffffffff168273ffffffffffffffffffffffffffffffffffffffff161415610897576040517f08c379a000000000000000000000000000000000000000000000000000000000815260040161088e90610fe7565b60405180910390fd5b80600160008573ffffffffffffffffffffffffffffffffffffffff1673ffffffffffffffffffffffffffffffffffffffff16815260200190815260200160002060008473ffffffffffffffffffffffffffffffffffffffff1673ffffffffffffffffffffffffffffffffffffffff168152602001908152602001600020819055508173ffffffffffffffffffffffffffffffffffffffff168373ffffffffffffffffffffffffffffffffffffffff167f8c5be1e5ebec7d5bd14f71427d1e84f3dd0314c0f7b2291e5b200ac8c7c3b925836040516109759190611027565b60405180910390a3505050565b600073ffffffffffffffffffffffffffffffffffffffff168273ffffffffffffffffffffffffffffffffffffffff1614156109f2576040517f08c379a00000000000000000000000000000000000000000000000000000000081526004016109e990610fc7565b60405180910390fd5b610a43816000808673ffffffffffffffffffffffffffffffffffffffff1673ffffffffffffffffffffffffffffffffffffffff16815260200190815260200160002054610cd690919063ffffffff16565b6000808573ffffffffffffffffffffffffffffffffffffffff1673ffffffffffffffffffffffffffffffffffffffff16815260200190815260200160002081905550610ad6816000808573ffffffffffffffffffffffffffffffffffffffff1673ffffffffffffffffffffffffffffffffffffffff16815260200190815260200160002054610cc090919063ffffffff16565b6000808473ffffffffffffffffffffffffffffffffffffffff1673ffffffffffffffffffffffffffffffffffffffff168152602001908152602001600020819055508173ffffffffffffffffffffffffffffffffffffffff168373ffffffffffffffffffffffffffffffffffffffff167fddf252ad1be2c89b69c2b068fc378daa952ba7f163c4a11628f55a4df523b3ef83604051610b759190611027565b60405180910390a3505050565b610c1c838383604051602401610b9a93929190610f4b565b6040516020818303038152906040527ffcec75e0000000000000000000000000000000000000000000000000000000007bffffffffffffffffffffffffffffffffffffffffffffffffffffffff19166020820180517bffffffffffffffffffffffffffffffffffffffffffffffffffffffff8381831617835250505050610cec565b505050565b610cbb838383604051602401610c3993929190610f89565b6040516020818303038152906040527f969cdd03000000000000000000000000000000000000000000000000000000007bffffffffffffffffffffffffffffffffffffffffffffffffffffffff19166020820180517bffffffffffffffffffffffffffffffffffffffffffffffffffffffff8381831617835250505050610cec565b505050565b60008183610cce919061105e565b905092915050565b60008183610ce491906110b4565b905092915050565b60008151905060006a636f6e736f6c652e6c6f679050602083016000808483855afa5050505050565b600081359050610d24816112f6565b92915050565b600081359050610d398161130d565b92915050565b600060208284031215610d5557610d546111f3565b5b6000610d6384828501610d15565b91505092915050565b60008060408385031215610d8357610d826111f3565b5b6000610d9185828601610d15565b9250506020610da285828601610d15565b9150509250929050565b600080600060608486031215610dc557610dc46111f3565b5b6000610dd386828701610d15565b9350506020610de486828701610d15565b9250506040610df586828701610d2a565b9150509250925092565b60008060408385031215610e1657610e156111f3565b5b6000610e2485828601610d15565b9250506020610e3585828601610d2a565b9150509250929050565b610e48816110e8565b82525050565b610e57816110fa565b82525050565b6000610e6882611042565b610e72818561104d565b9350610e82818560208601611130565b610e8b816111f8565b840191505092915050565b6000610ea360238361104d565b9150610eae82611209565b604082019050919050565b6000610ec660228361104d565b9150610ed182611258565b604082019050919050565b6000610ee960248361104d565b9150610ef4826112a7565b604082019050919050565b610f0881611126565b82525050565b6000602082019050610f236000830184610e4e565b92915050565b60006020820190508181036000830152610f438184610e5d565b905092915050565b60006060820190508181036000830152610f658186610e5d565b9050610f746020830185610e3f565b610f816040830184610e3f565b949350505050565b60006060820190508181036000830152610fa38186610e5d565b9050610fb26020830185610eff565b610fbf6040830184610eff565b949350505050565b60006020820190508181036000830152610fe081610e96565b9050919050565b6000602082019050818103600083015261100081610eb9565b9050919050565b6000602082019050818103600083015261102081610edc565b9050919050565b600060208201905061103c6000830184610eff565b92915050565b600081519050919050565b600082825260208201905092915050565b600061106982611126565b915061107483611126565b9250827fffffffffffffffffffffffffffffffffffffffffffffffffffffffffffffffff038211156110a9576110a8611195565b5b828201905092915050565b60006110bf82611126565b91506110ca83611126565b9250828210156110dd576110dc611195565b5b828203905092915050565b60006110f382611106565b9050919050565b60008115159050919050565b600073ffffffffffffffffffffffffffffffffffffffff82169050919050565b6000819050919050565b60005b8381101561114e578082015181840152602081019050611133565b8381111561115d576000848401525b50505050565b6000600282049050600182168061117b57607f821691505b6020821081141561118f5761118e6111c4565b5b50919050565b7f4e487b7100000000000000000000000000000000000000000000000000000000600052601160045260246000fd5b7f4e487b7100000000000000000000000000000000000000000000000000000000600052602260045260246000fd5b600080fd5b6000601f19601f8301169050919050565b7f45524332303a207472616e7366657220746f20746865207a65726f206164647260008201527f6573730000000000000000000000000000000000000000000000000000000000602082015250565b7f45524332303a20617070726f766520746f20746865207a65726f20616464726560008201527f7373000000000000000000000000000000000000000000000000000000000000602082015250565b7f45524332303a20617070726f76652066726f6d20746865207a65726f2061646460008201527f7265737300000000000000000000000000000000000000000000000000000000602082015250565b6112ff816110e8565b811461130a57600080fd5b50565b61131681611126565b811461132157600080fd5b5056fea2646970667358221220d59f28e4d19f37fc99eda2f304829b8e3afa95d35c889f041477e5c39f33d8ac64736f6c63430008060033",
  "linkReferences": {},
  "deployedLinkReferences": {}
}