{
  "_format": "hh-sol-artifact-1",
  "contractName": "BrusselsCoin",
  "sourceName": "contracts/BrusselsCoin.sol",
  "abi": [
    {
      "inputs": [],
      "stateMutability": "nonpayable",
      "type": "constructor"
    },
    {
      "anonymous": false,
      "inputs": [
        {
          "indexed": true,
          "internalType": "address",
          "name": "owner",
          "type": "address"
        },
        {
          "indexed": true,
          "internalType": "address",
          "name": "spender",
          "type": "address"
        },
        {
          "indexed": false,
          "internalType": "uint256",
          "name": "value",
          "type": "uint256"
        }
      ],
      "name": "Approval",
      "type": "event"
    },
    {
      "anonymous": false,
      "inputs": [
        {
          "indexed": false,
          "internalType": "uint256",
          "name": "newRate",
          "type": "uint256"
        },
        {
          "indexed": false,
          "internalType": "uint256",
          "name": "startPeriod",
          "type": "uint256"
        }
      ],
      "name": "DemurrageRateUpdated",
      "type": "event"
    },
    {
      "anonymous": false,
      "inputs": [
        {
          "indexed": true,
          "internalType": "address",
          "name": "previousOwner",
          "type": "address"
        },
        {
          "indexed": true,
          "internalType": "address",
          "name": "newOwner",
          "type": "address"
        }
      ],
      "name": "OwnershipTransferred",
      "type": "event"
    },
    {
      "anonymous": false,
      "inputs": [
        {
          "indexed": true,
          "internalType": "bytes32",
          "name": "role",
          "type": "bytes32"
        },
        {
          "indexed": true,
          "internalType": "bytes32",
          "name": "previousAdminRole",
          "type": "bytes32"
        },
        {
          "indexed": true,
          "internalType": "bytes32",
          "name": "newAdminRole",
          "type": "bytes32"
        }
      ],
      "name": "RoleAdminChanged",
      "type": "event"
    },
    {
      "anonymous": false,
      "inputs": [
        {
          "indexed": true,
          "internalType": "bytes32",
          "name": "role",
          "type": "bytes32"
        },
        {
          "indexed": true,
          "internalType": "address",
          "name": "account",
          "type": "address"
        },
        {
          "indexed": true,
          "internalType": "address",
          "name": "sender",
          "type": "address"
        }
      ],
      "name": "RoleGranted",
      "type": "event"
    },
    {
      "anonymous": false,
      "inputs": [
        {
          "indexed": true,
          "internalType": "bytes32",
          "name": "role",
          "type": "bytes32"
        },
        {
          "indexed": true,
          "internalType": "address",
          "name": "account",
          "type": "address"
        },
        {
          "indexed": true,
          "internalType": "address",
          "name": "sender",
          "type": "address"
        }
      ],
      "name": "RoleRevoked",
      "type": "event"
    },
    {
      "anonymous": false,
      "inputs": [
        {
          "indexed": true,
          "internalType": "address",
          "name": "from",
          "type": "address"
        },
        {
          "indexed": true,
          "internalType": "address",
          "name": "to",
          "type": "address"
        },
        {
          "indexed": false,
          "internalType": "uint256",
          "name": "value",
          "type": "uint256"
        }
      ],
      "name": "Transfer",
      "type": "event"
    },
    {
      "inputs": [],
      "name": "DEFAULT_ADMIN_ROLE",
      "outputs": [
        {
          "internalType": "bytes32",
          "name": "",
          "type": "bytes32"
        }
      ],
      "stateMutability": "view",
      "type": "function"
    },
    {
      "inputs": [],
      "name": "MINTER_ROLE",
      "outputs": [
        {
          "internalType": "bytes32",
          "name": "",
          "type": "bytes32"
        }
      ],
      "stateMutability": "view",
      "type": "function"
    },
    {
      "inputs": [
        {
          "internalType": "address",
          "name": "owner",
          "type": "address"
        },
        {
          "internalType": "address",
          "name": "spender",
          "type": "address"
        }
      ],
      "name": "allowance",
      "outputs": [
        {
          "internalType": "uint256",
          "name": "",
          "type": "uint256"
        }
      ],
      "stateMutability": "view",
      "type": "function"
    },
    {
      "inputs": [
        {
          "internalType": "address",
          "name": "spender",
          "type": "address"
        },
        {
          "internalType": "uint256",
          "name": "value",
          "type": "uint256"
        }
      ],
      "name": "approve",
      "outputs": [
        {
          "internalType": "bool",
          "name": "",
          "type": "bool"
        }
      ],
      "stateMutability": "nonpayable",
      "type": "function"
    },
    {
      "inputs": [
        {
          "internalType": "address",
          "name": "addr",
          "type": "address"
        }
      ],
      "name": "balanceOf",
      "outputs": [
        {
          "internalType": "uint256",
          "name": "value",
          "type": "uint256"
        }
      ],
      "stateMutability": "view",
      "type": "function"
    },
    {
      "inputs": [
        {
          "internalType": "uint256",
          "name": "rate",
          "type": "uint256"
        },
        {
          "internalType": "uint256",
          "name": "numberOfPeriods",
          "type": "uint256"
        }
      ],
      "name": "computeDemurrageFactor",
      "outputs": [
        {
          "internalType": "uint256",
          "name": "",
          "type": "uint256"
        }
      ],
      "stateMutability": "view",
      "type": "function"
    },
    {
      "inputs": [
        {
          "internalType": "address",
          "name": "spender",
          "type": "address"
        },
        {
          "internalType": "uint256",
          "name": "subtractedValue",
          "type": "uint256"
        }
      ],
      "name": "decreaseAllowance",
      "outputs": [
        {
          "internalType": "bool",
          "name": "",
          "type": "bool"
        }
      ],
      "stateMutability": "nonpayable",
      "type": "function"
    },
    {
      "inputs": [
        {
          "internalType": "uint256",
          "name": "timestamp",
          "type": "uint256"
        },
        {
          "internalType": "uint256",
          "name": "since",
          "type": "uint256"
        }
      ],
      "name": "elapsedDays",
      "outputs": [
        {
          "internalType": "uint256",
          "name": "",
          "type": "uint256"
        }
      ],
      "stateMutability": "pure",
      "type": "function"
    },
    {
      "inputs": [
        {
          "internalType": "bytes32",
          "name": "role",
          "type": "bytes32"
        }
      ],
      "name": "getRoleAdmin",
      "outputs": [
        {
          "internalType": "bytes32",
          "name": "",
          "type": "bytes32"
        }
      ],
      "stateMutability": "view",
      "type": "function"
    },
    {
      "inputs": [
        {
          "internalType": "bytes32",
          "name": "role",
          "type": "bytes32"
        },
        {
          "internalType": "address",
          "name": "account",
          "type": "address"
        }
      ],
      "name": "grantRole",
      "outputs": [],
      "stateMutability": "nonpayable",
      "type": "function"
    },
    {
      "inputs": [
        {
          "internalType": "bytes32",
          "name": "role",
          "type": "bytes32"
        },
        {
          "internalType": "address",
          "name": "account",
          "type": "address"
        }
      ],
      "name": "hasRole",
      "outputs": [
        {
          "internalType": "bool",
          "name": "",
          "type": "bool"
        }
      ],
      "stateMutability": "view",
      "type": "function"
    },
    {
      "inputs": [
        {
          "internalType": "address",
          "name": "spender",
          "type": "address"
        },
        {
          "internalType": "uint256",
          "name": "addedValue",
          "type": "uint256"
        }
      ],
      "name": "increaseAllowance",
      "outputs": [
        {
          "internalType": "bool",
          "name": "",
          "type": "bool"
        }
      ],
      "stateMutability": "nonpayable",
      "type": "function"
    },
    {
      "inputs": [
        {
          "internalType": "address",
          "name": "owner",
          "type": "address"
        },
        {
          "internalType": "address",
          "name": "spender",
          "type": "address"
        },
        {
          "internalType": "uint256",
          "name": "addedValue",
          "type": "uint256"
        }
      ],
      "name": "increaseAllowanceFor",
      "outputs": [
        {
          "internalType": "bool",
          "name": "",
          "type": "bool"
        }
      ],
      "stateMutability": "nonpayable",
      "type": "function"
    },
    {
      "inputs": [
        {
          "internalType": "uint256",
          "name": "a",
          "type": "uint256"
        },
        {
          "internalType": "uint256",
          "name": "b",
          "type": "uint256"
        }
      ],
      "name": "max",
      "outputs": [
        {
          "internalType": "uint256",
          "name": "",
          "type": "uint256"
        }
      ],
      "stateMutability": "pure",
      "type": "function"
    },
    {
      "inputs": [
        {
          "internalType": "address",
          "name": "to",
          "type": "address"
        },
        {
          "internalType": "uint256",
          "name": "value",
          "type": "uint256"
        }
      ],
      "name": "mint",
      "outputs": [
        {
          "internalType": "bool",
          "name": "",
          "type": "bool"
        }
      ],
      "stateMutability": "nonpayable",
      "type": "function"
    },
    {
      "inputs": [],
      "name": "name",
      "outputs": [
        {
          "internalType": "string",
          "name": "",
          "type": "string"
        }
      ],
      "stateMutability": "view",
      "type": "function"
    },
    {
      "inputs": [],
      "name": "owner",
      "outputs": [
        {
          "internalType": "address",
          "name": "",
          "type": "address"
        }
      ],
      "stateMutability": "view",
      "type": "function"
    },
    {
      "inputs": [],
      "name": "renounceOwnership",
      "outputs": [],
      "stateMutability": "nonpayable",
      "type": "function"
    },
    {
      "inputs": [
        {
          "internalType": "bytes32",
          "name": "role",
          "type": "bytes32"
        },
        {
          "internalType": "address",
          "name": "account",
          "type": "address"
        }
      ],
      "name": "renounceRole",
      "outputs": [],
      "stateMutability": "nonpayable",
      "type": "function"
    },
    {
      "inputs": [
        {
          "internalType": "bytes32",
          "name": "role",
          "type": "bytes32"
        },
        {
          "internalType": "address",
          "name": "account",
          "type": "address"
        }
      ],
      "name": "revokeRole",
      "outputs": [],
      "stateMutability": "nonpayable",
      "type": "function"
    },
    {
      "inputs": [
        {
          "internalType": "uint256",
          "name": "x",
          "type": "uint256"
        },
        {
          "internalType": "uint256",
          "name": "n",
          "type": "uint256"
        },
        {
          "internalType": "uint256",
          "name": "base",
          "type": "uint256"
        }
      ],
      "name": "rpow",
      "outputs": [
        {
          "internalType": "uint256",
          "name": "z",
          "type": "uint256"
        }
      ],
      "stateMutability": "pure",
      "type": "function"
    },
    {
      "inputs": [
        {
          "internalType": "uint256",
          "name": "_timestamp",
          "type": "uint256"
        }
      ],
      "name": "setBlockTimestampInTheFuture",
      "outputs": [],
      "stateMutability": "nonpayable",
      "type": "function"
    },
    {
      "inputs": [
        {
          "internalType": "uint256",
          "name": "_firstPeriodTimestamp",
          "type": "uint256"
        }
      ],
      "name": "setDemurrageStartTime",
      "outputs": [],
      "stateMutability": "nonpayable",
      "type": "function"
    },
    {
      "inputs": [
        {
          "internalType": "string",
          "name": "str",
          "type": "string"
        },
        {
          "internalType": "uint256",
          "name": "startIndex",
          "type": "uint256"
        },
        {
          "internalType": "uint256",
          "name": "endIndex",
          "type": "uint256"
        }
      ],
      "name": "substring",
      "outputs": [
        {
          "internalType": "string",
          "name": "",
          "type": "string"
        }
      ],
      "stateMutability": "pure",
      "type": "function"
    },
    {
      "inputs": [
        {
          "internalType": "bytes4",
          "name": "interfaceId",
          "type": "bytes4"
        }
      ],
      "name": "supportsInterface",
      "outputs": [
        {
          "internalType": "bool",
          "name": "",
          "type": "bool"
        }
      ],
      "stateMutability": "view",
      "type": "function"
    },
    {
      "inputs": [],
      "name": "symbol",
      "outputs": [
        {
          "internalType": "string",
          "name": "",
          "type": "string"
        }
      ],
      "stateMutability": "view",
      "type": "function"
    },
    {
      "inputs": [],
      "name": "totalSupply",
      "outputs": [
        {
          "internalType": "uint256",
          "name": "",
          "type": "uint256"
        }
      ],
      "stateMutability": "view",
      "type": "function"
    },
    {
      "inputs": [
        {
          "internalType": "address",
          "name": "to",
          "type": "address"
        },
        {
          "internalType": "uint256",
          "name": "transactionAmount",
          "type": "uint256"
        }
      ],
      "name": "transfer",
      "outputs": [
        {
          "internalType": "bool",
          "name": "",
          "type": "bool"
        }
      ],
      "stateMutability": "nonpayable",
      "type": "function"
    },
    {
      "inputs": [
        {
          "internalType": "address",
          "name": "tokenAddress",
          "type": "address"
        },
        {
          "internalType": "uint256",
          "name": "value",
          "type": "uint256"
        }
      ],
      "name": "transferAnyERC20Token",
      "outputs": [
        {
          "internalType": "bool",
          "name": "",
          "type": "bool"
        }
      ],
      "stateMutability": "nonpayable",
      "type": "function"
    },
    {
      "inputs": [
        {
          "internalType": "address",
          "name": "from",
          "type": "address"
        },
        {
          "internalType": "address",
          "name": "to",
          "type": "address"
        },
        {
          "internalType": "uint256",
          "name": "transactionAmount",
          "type": "uint256"
        }
      ],
      "name": "transferFrom",
      "outputs": [
        {
          "internalType": "bool",
          "name": "",
          "type": "bool"
        }
      ],
      "stateMutability": "nonpayable",
      "type": "function"
    },
    {
      "inputs": [
        {
          "internalType": "address",
          "name": "newOwner",
          "type": "address"
        }
      ],
      "name": "transferOwnership",
      "outputs": [],
      "stateMutability": "nonpayable",
      "type": "function"
    },
    {
      "inputs": [
        {
          "internalType": "address",
          "name": "account",
          "type": "address"
        }
      ],
      "name": "updateBalanceWithDemurrage",
      "outputs": [],
      "stateMutability": "nonpayable",
      "type": "function"
    },
    {
      "inputs": [
        {
          "internalType": "uint256",
          "name": "newRate",
          "type": "uint256"
        },
        {
          "internalType": "uint256",
          "name": "_startFrom",
          "type": "uint256"
        }
      ],
      "name": "updateDemurrageRate",
      "outputs": [],
      "stateMutability": "nonpayable",
      "type": "function"
    }
  ],
  "bytecode": "0x6080604052426009553480156200001557600080fd5b506040518060400160405280600d81526020017f4272757373656c7320436f696e000000000000000000000000000000000000008152506040518060400160405280600381526020017f42584c0000000000000000000000000000000000000000000000000000000000815250336004600a6200009391906200080f565b6001620000a191906200094c565b6004600a620000b191906200080f565b6001620000bf91906200094c565b6226ee904286868160039080519060200190620000de92919062000612565b508060049080519060200190620000f792919062000612565b50600060028190555060008060003373ffffffffffffffffffffffffffffffffffffffff1673ffffffffffffffffffffffffffffffffffffffff168152602001908152602001600020819055505050620001666200015a620002c660201b60201c565b620002ce60201b60201c565b6200017b6000801b336200039460201b60201c565b620001ad7f9f2df0fed2c77648de5860a4cc508cd0818c85b8b8a1ab4ceeef8d981c8956a6336200039460201b60201c565b84600860006101000a81548173ffffffffffffffffffffffffffffffffffffffff021916908373ffffffffffffffffffffffffffffffffffffffff16021790555083600a819055506006600b60006101000a81548160ff021916908360ff16021790555081600c81905550600081111562000234576200023381620003aa60201b60201c565b5b6040518060400160405280600954815260200184815250600e600080815260200190815260200160002060008201518160000155602082015181600101559050506001600f819055507ff4a72688cf9ca59eb1c51e9a3b2e9b253b12f0a61fd9ed4625f6b1252ced4dbe836000604051620002b192919062000776565b60405180910390a15050505050505062000ae4565b600033905090565b6000600560009054906101000a900473ffffffffffffffffffffffffffffffffffffffff16905081600560006101000a81548173ffffffffffffffffffffffffffffffffffffffff021916908373ffffffffffffffffffffffffffffffffffffffff1602179055508173ffffffffffffffffffffffffffffffffffffffff168173ffffffffffffffffffffffffffffffffffffffff167f8be0079c531659141344cd1fd0a4f28419497f9722a3daafe3b4186f6b6457e060405160405180910390a35050565b620003a682826200048b60201b60201c565b5050565b620003ba620002c660201b60201c565b73ffffffffffffffffffffffffffffffffffffffff16620003e06200057d60201b60201c565b73ffffffffffffffffffffffffffffffffffffffff161462000439576040517f08c379a0000000000000000000000000000000000000000000000000000000008152600401620004309062000754565b60405180910390fd5b60006010541462000481576040517f08c379a0000000000000000000000000000000000000000000000000000000008152600401620004789062000732565b60405180910390fd5b8060108190555050565b6200049d8282620005a760201b60201c565b620005795760016006600084815260200190815260200160002060000160008373ffffffffffffffffffffffffffffffffffffffff1673ffffffffffffffffffffffffffffffffffffffff16815260200190815260200160002060006101000a81548160ff0219169083151502179055506200051e620002c660201b60201c565b73ffffffffffffffffffffffffffffffffffffffff168173ffffffffffffffffffffffffffffffffffffffff16837f2f8788117e7eff1d82e926ec794901d17c78024a50270940304540a733656f0d60405160405180910390a45b5050565b6000600560009054906101000a900473ffffffffffffffffffffffffffffffffffffffff16905090565b60006006600084815260200190815260200160002060000160008373ffffffffffffffffffffffffffffffffffffffff1673ffffffffffffffffffffffffffffffffffffffff16815260200190815260200160002060009054906101000a900460ff16905092915050565b8280546200062090620009cb565b90600052602060002090601f01602090048101928262000644576000855562000690565b82601f106200065f57805160ff191683800117855562000690565b8280016001018555821562000690579182015b828111156200068f57825182559160200191906001019062000672565b5b5090506200069f9190620006a3565b5090565b5b80821115620006be576000816000905550600101620006a4565b5090565b620006cd81620009b7565b82525050565b6000620006e2602983620007a3565b9150620006ef8262000a6c565b604082019050919050565b600062000709602083620007a3565b9150620007168262000abb565b602082019050919050565b6200072c81620009ad565b82525050565b600060208201905081810360008301526200074d81620006d3565b9050919050565b600060208201905081810360008301526200076f81620006fa565b9050919050565b60006040820190506200078d600083018562000721565b6200079c6020830184620006c2565b9392505050565b600082825260208201905092915050565b6000808291508390505b60018511156200080657808604811115620007de57620007dd62000a01565b5b6001851615620007ee5780820291505b8081029050620007fe8562000a5f565b9450620007be565b94509492505050565b60006200081c82620009ad565b91506200082983620009ad565b9250620008587fffffffffffffffffffffffffffffffffffffffffffffffffffffffffffffffff848462000860565b905092915050565b60008262000872576001905062000945565b8162000882576000905062000945565b81600181146200089b5760028114620008a657620008dc565b600191505062000945565b60ff841115620008bb57620008ba62000a01565b5b8360020a915084821115620008d557620008d462000a01565b5b5062000945565b5060208310610133831016604e8410600b8410161715620009165782820a90508381111562000910576200090f62000a01565b5b62000945565b620009258484846001620007b4565b925090508184048111156200093f576200093e62000a01565b5b81810290505b9392505050565b60006200095982620009ad565b91506200096683620009ad565b9250817fffffffffffffffffffffffffffffffffffffffffffffffffffffffffffffffff0483118215151615620009a257620009a162000a01565b5b828202905092915050565b6000819050919050565b6000620009c482620009ad565b9050919050565b60006002820490506001821680620009e457607f821691505b60208210811415620009fb57620009fa62000a30565b5b50919050565b7f4e487b7100000000000000000000000000000000000000000000000000000000600052601160045260246000fd5b7f4e487b7100000000000000000000000000000000000000000000000000000000600052602260045260246000fd5b60008160011c9050919050565b7f64656d7572726167652073746172742074696d652068617320616c726561647960008201527f206265656e207365740000000000000000000000000000000000000000000000602082015250565b7f4f776e61626c653a2063616c6c6572206973206e6f7420746865206f776e6572600082015250565b614c3e8062000af46000396000f3fe608060405234801561001057600080fd5b50600436106101fb5760003560e01c80636d5433e61161011a578063a457c2d7116100ad578063dc39d06d1161007c578063dc39d06d1461064a578063dd62ed3e1461067a578063e16e5c76146106aa578063f2fde38b146106c6578063f5122736146106e2576101fb565b8063a457c2d7146105b0578063a9059cbb146105e0578063d539139314610610578063d547741f1461062e576101fb565b80638da5cb5b116100e95780638da5cb5b1461052657806391d148541461054457806395d89b4114610574578063a217fddf14610592576101fb565b80636d5433e61461048c57806370a08231146104bc57806370d32684146104ec578063715018a61461051c576101fb565b806323b872dd1161019257806336568abe1161016157806336568abe146103e057806339509351146103fc57806340c10f191461042c57806367b870af1461045c576101fb565b806323b872dd14610334578063248a9ca3146103645780632d7efaeb146103945780632f2ff15d146103c4576101fb565b806316b0813e116101ce57806316b0813e1461029a57806318160ddd146102ca5780631dcd9b55146102e857806322d4afba14610318576101fb565b806301ffc9a71461020057806306fdde0314610230578063082a93c31461024e578063095ea7b31461026a575b600080fd5b61021a600480360381019061021591906138cb565b6106fe565b6040516102279190613d44565b60405180910390f35b610238610778565b6040516102459190613d7a565b60405180910390f35b61026860048036038101906102639190613967565b61080a565b005b610284600480360381019061027f91906137f1565b610950565b6040516102919190613d44565b60405180910390f35b6102b460048036038101906102af9190613994565b610967565b6040516102c19190614170565b60405180910390f35b6102d26109c8565b6040516102df9190614170565b60405180910390f35b61030260048036038101906102fd91906138f8565b6109d2565b60405161030f9190613d7a565b60405180910390f35b610332600480360381019061032d9190613731565b610ace565b005b61034e6004803603810190610349919061379e565b610d9e565b60405161035b9190613d44565b60405180910390f35b61037e6004803603810190610379919061385e565b610dd0565b60405161038b9190613d5f565b60405180910390f35b6103ae60048036038101906103a99190613994565b610df0565b6040516103bb9190614170565b60405180910390f35b6103de60048036038101906103d9919061388b565b610e4d565b005b6103fa60048036038101906103f5919061388b565b610e76565b005b610416600480360381019061041191906137f1565b610ef9565b6040516104239190613d44565b60405180910390f35b610446600480360381019061044191906137f1565b610f9e565b6040516104539190613d44565b60405180910390f35b610476600480360381019061047191906139d4565b6110c0565b6040516104839190614170565b60405180910390f35b6104a660048036038101906104a19190613994565b611186565b6040516104b39190614170565b60405180910390f35b6104d660048036038101906104d19190613731565b6111a0565b6040516104e39190614170565b60405180910390f35b6105066004803603810190610501919061379e565b611261565b6040516105139190613d44565b60405180910390f35b610524611307565b005b61052e61138f565b60405161053b9190613d00565b60405180910390f35b61055e6004803603810190610559919061388b565b6113b9565b60405161056b9190613d44565b60405180910390f35b61057c611424565b6040516105899190613d7a565b60405180910390f35b61059a6114b6565b6040516105a79190613d5f565b60405180910390f35b6105ca60048036038101906105c591906137f1565b6114bd565b6040516105d79190613d44565b60405180910390f35b6105fa60048036038101906105f591906137f1565b611562565b6040516106079190613d44565b60405180910390f35b61061861176c565b6040516106259190613d5f565b60405180910390f35b6106486004803603810190610643919061388b565b611790565b005b610664600480360381019061065f91906137f1565b6117b9565b6040516106719190613d44565b60405180910390f35b610694600480360381019061068f919061375e565b6118d3565b6040516106a19190614170565b60405180910390f35b6106c460048036038101906106bf9190613994565b61195a565b005b6106e060048036038101906106db9190613731565b611ae8565b005b6106fc60048036038101906106f79190613967565b611be0565b005b60007f7965db0b000000000000000000000000000000000000000000000000000000007bffffffffffffffffffffffffffffffffffffffffffffffffffffffff1916827bffffffffffffffffffffffffffffffffffffffffffffffffffffffff19161480610771575061077082611cab565b5b9050919050565b606060038054610787906145a1565b80601f01602080910402602001604051908101604052809291908181526020018280546107b3906145a1565b80156108005780601f106107d557610100808354040283529160200191610800565b820191906000526020600020905b8154815290600101906020018083116107e357829003601f168201915b5050505050905090565b610812611d15565b73ffffffffffffffffffffffffffffffffffffffff1661083061138f565b73ffffffffffffffffffffffffffffffffffffffff1614610886576040517f08c379a000000000000000000000000000000000000000000000000000000000815260040161087d906140d0565b60405180910390fd5b4281116108c8576040517f08c379a00000000000000000000000000000000000000000000000000000000081526004016108bf90614110565b60405180910390fd5b8060098190555061094d6040518060400160405280601a81526020017f3e3e3e2073657474696e6720626c6f636b54696d657374616d700000000000008152506109128342610df0565b6040518060400160405280601281526020017f6461797320696e20746865206675747572650000000000000000000000000000815250611d1d565b50565b600061095d338484611dbc565b6001905092915050565b60008083600b60009054906101000a900460ff1660ff16600a61098a919061430b565b6109949190614483565b90506109bf8184600b60009054906101000a900460ff1660ff16600a6109ba919061430b565b6110c0565b91505092915050565b6000600254905090565b60606000849050600084846109e79190614483565b67ffffffffffffffff811115610a00576109ff61472d565b5b6040519080825280601f01601f191660200182016040528015610a325781602001600182028036833780820191505090505b50905060008590505b84811015610ac157828181518110610a5657610a556146fe565b5b602001015160f81c60f81b828783610a6e9190614483565b81518110610a7f57610a7e6146fe565b5b60200101907effffffffffffffffffffffffffffffffffffffffffffffffffffffffffffff1916908160001a9053508080610ab990614604565b915050610a3b565b5080925050509392505050565b6000610ad982611f87565b9050610b116040518060600160405280602a8152602001614b2e602a9139610b0c610b0385611fcf565b600060066109d2565b612000565b610bd16040518060400160405280600881526020017f42616c616e63653a000000000000000000000000000000000000000000000000815250826040518060400160405280601f81526020017f446179732073696e6365206c6173742062616c616e6365206368616e67653a00815250610bcc600d60008873ffffffffffffffffffffffffffffffffffffffff1673ffffffffffffffffffffffffffffffffffffffff16815260200190815260200160002054600954610df0565b61209c565b6000811415610be05750610d9b565b600c54600d60008473ffffffffffffffffffffffffffffffffffffffff1673ffffffffffffffffffffffffffffffffffffffff168152602001908152602001600020541015610c2f5750610d9b565b6000610c7a82600d60008673ffffffffffffffffffffffffffffffffffffffff1673ffffffffffffffffffffffffffffffffffffffff1681526020019081526020016000205461213e565b905060008183610c8a9190614483565b9050610cb0604051806060016040528060218152602001614b586021913984848461240f565b3373ffffffffffffffffffffffffffffffffffffffff168473ffffffffffffffffffffffffffffffffffffffff161415610d1657610d10600860009054906101000a900473ffffffffffffffffffffffffffffffffffffffff16826124b1565b50610d51565b610d21843383611261565b50610d4f84600860009054906101000a900473ffffffffffffffffffffffffffffffffffffffff16836124c8565b505b600954600d60008673ffffffffffffffffffffffffffffffffffffffff1673ffffffffffffffffffffffffffffffffffffffff168152602001908152602001600020819055505050505b50565b6000610da984610ace565b610db283610ace565b610dbc84836125dc565b610dc78484846124c8565b90509392505050565b600060066000838152602001908152602001600020600101549050919050565b600080831415610e035760009050610e47565b818310610e2957620151808284610e1a9190614483565b610e249190614287565b610e44565b620151808383610e399190614483565b610e439190614287565b5b90505b92915050565b610e5682610dd0565b610e6781610e62611d15565b612701565b610e71838361279e565b505050565b610e7e611d15565b73ffffffffffffffffffffffffffffffffffffffff168173ffffffffffffffffffffffffffffffffffffffff1614610eeb576040517f08c379a0000000000000000000000000000000000000000000000000000000008152600401610ee290614130565b60405180910390fd5b610ef5828261287f565b5050565b6000610f943384610f8f85600160003373ffffffffffffffffffffffffffffffffffffffff1673ffffffffffffffffffffffffffffffffffffffff16815260200190815260200160002060008973ffffffffffffffffffffffffffffffffffffffff1673ffffffffffffffffffffffffffffffffffffffff1681526020019081526020016000205461296190919063ffffffff16565b611dbc565b6001905092915050565b60007f9f2df0fed2c77648de5860a4cc508cd0818c85b8b8a1ab4ceeef8d981c8956a6610fd281610fcd611d15565b612701565b61105c6040518060400160405280600b81526020017f3e3e3e206d696e74696e67000000000000000000000000000000000000000000815250846040518060400160405280600281526020017f746f00000000000000000000000000000000000000000000000000000000000081525061105761104e89611fcf565b600060066109d2565b612977565b61106584610ace565b61106f8484612a19565b600954600d60008673ffffffffffffffffffffffffffffffffffffffff1673ffffffffffffffffffffffffffffffffffffffff16815260200190815260200160002081905550600191505092915050565b600083600081146111665760028406600081146110df578592506110e3565b8392505b50600283046002850494505b841561116057858602868782041461110657600080fd5b8181018181101561111657600080fd5b8581049750600287061561115357878502858982041415891515161561113b57600080fd5b8381018181101561114b57600080fd5b878104965050505b50506002850494506110ef565b5061117e565b8360008114611178576000925061117c565b8392505b505b509392505050565b6000818310156111965781611198565b825b905092915050565b6000600860009054906101000a900473ffffffffffffffffffffffffffffffffffffffff1673ffffffffffffffffffffffffffffffffffffffff168273ffffffffffffffffffffffffffffffffffffffff1614156112085761120182611f87565b905061125c565b61125961121483611f87565b600d60008573ffffffffffffffffffffffffffffffffffffffff1673ffffffffffffffffffffffffffffffffffffffff1681526020019081526020016000205461213e565b90505b919050565b60006112fc84846112f785600160003373ffffffffffffffffffffffffffffffffffffffff1673ffffffffffffffffffffffffffffffffffffffff16815260200190815260200160002060008973ffffffffffffffffffffffffffffffffffffffff1673ffffffffffffffffffffffffffffffffffffffff1681526020019081526020016000205461296190919063ffffffff16565b611dbc565b600190509392505050565b61130f611d15565b73ffffffffffffffffffffffffffffffffffffffff1661132d61138f565b73ffffffffffffffffffffffffffffffffffffffff1614611383576040517f08c379a000000000000000000000000000000000000000000000000000000000815260040161137a906140d0565b60405180910390fd5b61138d6000612ba1565b565b6000600560009054906101000a900473ffffffffffffffffffffffffffffffffffffffff16905090565b60006006600084815260200190815260200160002060000160008373ffffffffffffffffffffffffffffffffffffffff1673ffffffffffffffffffffffffffffffffffffffff16815260200190815260200160002060009054906101000a900460ff16905092915050565b606060048054611433906145a1565b80601f016020809104026020016040519081016040528092919081815260200182805461145f906145a1565b80156114ac5780601f10611481576101008083540402835291602001916114ac565b820191906000526020600020905b81548152906001019060200180831161148f57829003601f168201915b5050505050905090565b6000801b81565b6000611558338461155385600160003373ffffffffffffffffffffffffffffffffffffffff1673ffffffffffffffffffffffffffffffffffffffff16815260200190815260200160002060008973ffffffffffffffffffffffffffffffffffffffff1673ffffffffffffffffffffffffffffffffffffffff16815260200190815260200160002054612c6790919063ffffffff16565b611dbc565b6001905092915050565b60006115ab6040518060400160405280601481526020017f302e2062616c616e6365206f662073656e6465720000000000000000000000008152506115a633611f87565b612c7d565b6115b433610ace565b6115bd83610ace565b6116046040518060400160405280601481526020017f312e2062616c616e6365206f662073656e6465720000000000000000000000008152506115ff33611f87565b612c7d565b61160e33836125dc565b6116556040518060400160405280601481526020017f322e2062616c616e6365206f662073656e64657200000000000000000000000081525061165033611f87565b612c7d565b6116cb6040518060400160405280600a81526020017f332e2053656e64696e6700000000000000000000000000000000000000000000815250836040518060400160405280600281526020017f746f00000000000000000000000000000000000000000000000000000000000081525086612d19565b6116d583836124b1565b50600954600d60003373ffffffffffffffffffffffffffffffffffffffff1673ffffffffffffffffffffffffffffffffffffffff16815260200190815260200160002081905550600954600d60008573ffffffffffffffffffffffffffffffffffffffff1673ffffffffffffffffffffffffffffffffffffffff168152602001908152602001600020819055506001905092915050565b7f9f2df0fed2c77648de5860a4cc508cd0818c85b8b8a1ab4ceeef8d981c8956a681565b61179982610dd0565b6117aa816117a5611d15565b612701565b6117b4838361287f565b505050565b60006117c3611d15565b73ffffffffffffffffffffffffffffffffffffffff166117e161138f565b73ffffffffffffffffffffffffffffffffffffffff1614611837576040517f08c379a000000000000000000000000000000000000000000000000000000000815260040161182e906140d0565b60405180910390fd5b8273ffffffffffffffffffffffffffffffffffffffff1663a9059cbb61185b61138f565b846040518363ffffffff1660e01b8152600401611879929190613d1b565b602060405180830381600087803b15801561189357600080fd5b505af11580156118a7573d6000803e3d6000fd5b505050506040513d601f19601f820116820180604052508101906118cb9190613831565b905092915050565b6000600160008473ffffffffffffffffffffffffffffffffffffffff1673ffffffffffffffffffffffffffffffffffffffff16815260200190815260200160002060008373ffffffffffffffffffffffffffffffffffffffff1673ffffffffffffffffffffffffffffffffffffffff16815260200190815260200160002054905092915050565b7f9f2df0fed2c77648de5860a4cc508cd0818c85b8b8a1ab4ceeef8d981c8956a661198c81611987611d15565b612701565b611a0d6040518060400160405280601781526020017f3e3e3e2075706461746544656d75727261676552617465000000000000000000815250846040518060400160405280601281526020017f7374617274696e6720696e202864617973290000000000000000000000000000815250611a0886600954610df0565b61209c565b6009548211611a51576040517f08c379a0000000000000000000000000000000000000000000000000000000008152600401611a48906140b0565b60405180910390fd5b604051806040016040528083815260200184815250600e6000600f5481526020019081526020016000206000820151816000015560208201518160010155905050600f6000815480929190611aa590614604565b91905055507ff4a72688cf9ca59eb1c51e9a3b2e9b253b12f0a61fd9ed4625f6b1252ced4dbe8383604051611adb92919061418b565b60405180910390a1505050565b611af0611d15565b73ffffffffffffffffffffffffffffffffffffffff16611b0e61138f565b73ffffffffffffffffffffffffffffffffffffffff1614611b64576040517f08c379a0000000000000000000000000000000000000000000000000000000008152600401611b5b906140d0565b60405180910390fd5b600073ffffffffffffffffffffffffffffffffffffffff168173ffffffffffffffffffffffffffffffffffffffff161415611bd4576040517f08c379a0000000000000000000000000000000000000000000000000000000008152600401611bcb90614050565b60405180910390fd5b611bdd81612ba1565b50565b611be8611d15565b73ffffffffffffffffffffffffffffffffffffffff16611c0661138f565b73ffffffffffffffffffffffffffffffffffffffff1614611c5c576040517f08c379a0000000000000000000000000000000000000000000000000000000008152600401611c53906140d0565b60405180910390fd5b600060105414611ca1576040517f08c379a0000000000000000000000000000000000000000000000000000000008152600401611c9890614090565b60405180910390fd5b8060108190555050565b60007f01ffc9a7000000000000000000000000000000000000000000000000000000007bffffffffffffffffffffffffffffffffffffffffffffffffffffffff1916827bffffffffffffffffffffffffffffffffffffffffffffffffffffffff1916149050919050565b600033905090565b611db7838383604051602401611d3593929190613e41565b6040516020818303038152906040527fa3f5c739000000000000000000000000000000000000000000000000000000007bffffffffffffffffffffffffffffffffffffffffffffffffffffffff19166020820180517bffffffffffffffffffffffffffffffffffffffffffffffffffffffff8381831617835250505050612dbb565b505050565b600073ffffffffffffffffffffffffffffffffffffffff168373ffffffffffffffffffffffffffffffffffffffff161415611e2c576040517f08c379a0000000000000000000000000000000000000000000000000000000008152600401611e23906140f0565b60405180910390fd5b600073ffffffffffffffffffffffffffffffffffffffff168273ffffffffffffffffffffffffffffffffffffffff161415611e9c576040517f08c379a0000000000000000000000000000000000000000000000000000000008152600401611e9390614070565b60405180910390fd5b80600160008573ffffffffffffffffffffffffffffffffffffffff1673ffffffffffffffffffffffffffffffffffffffff16815260200190815260200160002060008473ffffffffffffffffffffffffffffffffffffffff1673ffffffffffffffffffffffffffffffffffffffff168152602001908152602001600020819055508173ffffffffffffffffffffffffffffffffffffffff168373ffffffffffffffffffffffffffffffffffffffff167f8c5be1e5ebec7d5bd14f71427d1e84f3dd0314c0f7b2291e5b200ac8c7c3b92583604051611f7a9190614170565b60405180910390a3505050565b60008060008373ffffffffffffffffffffffffffffffffffffffff1673ffffffffffffffffffffffffffffffffffffffff168152602001908152602001600020549050919050565b6060611ff982604051602001611fe59190613cab565b604051602081830303815290604052612de4565b9050919050565b6120988282604051602401612016929190613dda565b6040516020818303038152906040527f4b5c4277000000000000000000000000000000000000000000000000000000007bffffffffffffffffffffffffffffffffffffffffffffffffffffffff19166020820180517bffffffffffffffffffffffffffffffffffffffffffffffffffffffff8381831617835250505050612dbb565b5050565b612138848484846040516024016120b69493929190613f33565b6040516020818303038152906040527fa0c4b225000000000000000000000000000000000000000000000000000000007bffffffffffffffffffffffffffffffffffffffffffffffffffffffff19166020820180517bffffffffffffffffffffffffffffffffffffffffffffffffffffffff8381831617835250505050612dbb565b50505050565b60008083905060008061216b6040518060600160405280603d8152602001614ba7603d9139600f54612c7d565b6121cf6040518060400160405280601081526020017f43757272656e742062616c616e63653a0000000000000000000000000000000081525087604051806060016040528060258152602001614be4602591396121ca89600954610df0565b61209c565b600090505b600f54811015612403576000600e6000838152602001908152602001600020905061222c6040518060600160405280602e8152602001614b79602e91398383600101546122278560000154600954610df0565b61240f565b60006001600f5461223d9190614483565b8310801561226f5750600954600e600060018661225a9190614231565b81526020019081526020016000206000015411155b905080156122a157600e60006001856122889190614231565b81526020019081526020016000206000015493506122a7565b60095493505b868410156122b65750506123f0565b60006122c6888460000154611186565b856122d19190614483565b90506000600c54826122e39190614287565b905061235a6040518060400160405280601b81526020017f4170706c79696e672064656d757272616765207261746520666f720000000000815250826040518060400160405280600781526020017f706572696f647300000000000000000000000000000000000000000000000000815250611d1d565b600b60009054906101000a900460ff1660ff16600a612379919061430b565b612387856001015483610967565b886123929190614429565b61239c9190614287565b96506123dd6040518060400160405280601381526020017f44656d757272616765642062616c616e63653a0000000000000000000000000081525088612c7d565b826123eb5750505050612403565b505050505b80806123fb90614604565b9150506121d4565b82935050505092915050565b6124ab848484846040516024016124299493929190613fc4565b6040516020818303038152906040527f08ee5666000000000000000000000000000000000000000000000000000000007bffffffffffffffffffffffffffffffffffffffffffffffffffffffff19166020820180517bffffffffffffffffffffffffffffffffffffffffffffffffffffffff8381831617835250505050612dbb565b50505050565b60006124be3384846130de565b6001905092915050565b60006124d58484846130de565b6125156040518060400160405280600c81526020017f7472616e7366657246726f6d000000000000000000000000000000000000000081525085336132de565b6125d16040518060400160405280601681526020017f63757272656e7420616c6c6f77616e63652c2073756200000000000000000000815250600160008773ffffffffffffffffffffffffffffffffffffffff1673ffffffffffffffffffffffffffffffffffffffff16815260200190815260200160002060003373ffffffffffffffffffffffffffffffffffffffff1673ffffffffffffffffffffffffffffffffffffffff168152602001908152602001600020548461337d565b600190509392505050565b6000600a5414156125ec576126fd565b6000600b60009054906101000a900460ff1660ff16600a61260d919061430b565b82600a5461261b9190614429565b6126259190614287565b90506126666040518060400160405280601c81526020017f3e3e3e205f6368617267655472616e73616374696f6e466565206f660000000081525082612c7d565b3373ffffffffffffffffffffffffffffffffffffffff168373ffffffffffffffffffffffffffffffffffffffff1614156126cc576126c6600860009054906101000a900473ffffffffffffffffffffffffffffffffffffffff16826124b1565b506126fb565b6126f983600860009054906101000a900473ffffffffffffffffffffffffffffffffffffffff16836124c8565b505b505b5050565b61270b82826113b9565b61279a576127308173ffffffffffffffffffffffffffffffffffffffff16601461341c565b61273e8360001c602061341c565b60405160200161274f929190613cc6565b6040516020818303038152906040526040517f08c379a00000000000000000000000000000000000000000000000000000000081526004016127919190613d7a565b60405180910390fd5b5050565b6127a882826113b9565b61287b5760016006600084815260200190815260200160002060000160008373ffffffffffffffffffffffffffffffffffffffff1673ffffffffffffffffffffffffffffffffffffffff16815260200190815260200160002060006101000a81548160ff021916908315150217905550612820611d15565b73ffffffffffffffffffffffffffffffffffffffff168173ffffffffffffffffffffffffffffffffffffffff16837f2f8788117e7eff1d82e926ec794901d17c78024a50270940304540a733656f0d60405160405180910390a45b5050565b61288982826113b9565b1561295d5760006006600084815260200190815260200160002060000160008373ffffffffffffffffffffffffffffffffffffffff1673ffffffffffffffffffffffffffffffffffffffff16815260200190815260200160002060006101000a81548160ff021916908315150217905550612902611d15565b73ffffffffffffffffffffffffffffffffffffffff168173ffffffffffffffffffffffffffffffffffffffff16837ff6391f5c32d9c69d2a47ea670b442974b53935d1edc7fd64eb21e047a839171b60405160405180910390a45b5050565b6000818361296f9190614231565b905092915050565b612a13848484846040516024016129919493929190613ed9565b6040516020818303038152906040527f6c98dae2000000000000000000000000000000000000000000000000000000007bffffffffffffffffffffffffffffffffffffffffffffffffffffffff19166020820180517bffffffffffffffffffffffffffffffffffffffffffffffffffffffff8381831617835250505050612dbb565b50505050565b600073ffffffffffffffffffffffffffffffffffffffff168273ffffffffffffffffffffffffffffffffffffffff161415612a89576040517f08c379a0000000000000000000000000000000000000000000000000000000008152600401612a8090614150565b60405180910390fd5b612a9e8160025461296190919063ffffffff16565b600281905550612af5816000808573ffffffffffffffffffffffffffffffffffffffff1673ffffffffffffffffffffffffffffffffffffffff1681526020019081526020016000205461296190919063ffffffff16565b6000808473ffffffffffffffffffffffffffffffffffffffff1673ffffffffffffffffffffffffffffffffffffffff168152602001908152602001600020819055508173ffffffffffffffffffffffffffffffffffffffff16600073ffffffffffffffffffffffffffffffffffffffff167fddf252ad1be2c89b69c2b068fc378daa952ba7f163c4a11628f55a4df523b3ef83604051612b959190614170565b60405180910390a35050565b6000600560009054906101000a900473ffffffffffffffffffffffffffffffffffffffff16905081600560006101000a81548173ffffffffffffffffffffffffffffffffffffffff021916908373ffffffffffffffffffffffffffffffffffffffff1602179055508173ffffffffffffffffffffffffffffffffffffffff168173ffffffffffffffffffffffffffffffffffffffff167f8be0079c531659141344cd1fd0a4f28419497f9722a3daafe3b4186f6b6457e060405160405180910390a35050565b60008183612c759190614483565b905092915050565b612d158282604051602401612c93929190613e11565b6040516020818303038152906040527f9710a9d0000000000000000000000000000000000000000000000000000000007bffffffffffffffffffffffffffffffffffffffffffffffffffffffff19166020820180517bffffffffffffffffffffffffffffffffffffffffffffffffffffffff8381831617835250505050612dbb565b5050565b612db584848484604051602401612d339493929190613e86565b6040516020818303038152906040527fbb7235e9000000000000000000000000000000000000000000000000000000007bffffffffffffffffffffffffffffffffffffffffffffffffffffffff19166020820180517bffffffffffffffffffffffffffffffffffffffffffffffffffffffff8381831617835250505050612dbb565b50505050565b60008151905060006a636f6e736f6c652e6c6f679050602083016000808483855afa5050505050565b606060006040518060400160405280601081526020017f30313233343536373839616263646566000000000000000000000000000000008152509050600060028451612e309190614429565b6002612e3c9190614231565b67ffffffffffffffff811115612e5557612e5461472d565b5b6040519080825280601f01601f191660200182016040528015612e875781602001600182028036833780820191505090505b5090507f300000000000000000000000000000000000000000000000000000000000000081600081518110612ebf57612ebe6146fe565b5b60200101907effffffffffffffffffffffffffffffffffffffffffffffffffffffffffffff1916908160001a9053507f780000000000000000000000000000000000000000000000000000000000000081600181518110612f2357612f226146fe565b5b60200101907effffffffffffffffffffffffffffffffffffffffffffffffffffffffffffff1916908160001a90535060005b84518110156130d357826004868381518110612f7457612f736146fe565b5b602001015160f81c60f81b7effffffffffffffffffffffffffffffffffffffffffffffffffffffffffffff1916901c60f81c60ff1681518110612fba57612fb96146fe565b5b602001015160f81c60f81b82600283612fd39190614429565b6002612fdf9190614231565b81518110612ff057612fef6146fe565b5b60200101907effffffffffffffffffffffffffffffffffffffffffffffffffffffffffffff1916908160001a90535082600f60f81b868381518110613038576130376146fe565b5b602001015160f81c60f81b1660f81c60ff168151811061305b5761305a6146fe565b5b602001015160f81c60f81b826002836130749190614429565b60036130809190614231565b81518110613091576130906146fe565b5b60200101907effffffffffffffffffffffffffffffffffffffffffffffffffffffffffffff1916908160001a90535080806130cb90614604565b915050612f55565b508092505050919050565b600073ffffffffffffffffffffffffffffffffffffffff168273ffffffffffffffffffffffffffffffffffffffff16141561314e576040517f08c379a000000000000000000000000000000000000000000000000000000000815260040161314590614030565b60405180910390fd5b61319f816000808673ffffffffffffffffffffffffffffffffffffffff1673ffffffffffffffffffffffffffffffffffffffff16815260200190815260200160002054612c6790919063ffffffff16565b6000808573ffffffffffffffffffffffffffffffffffffffff1673ffffffffffffffffffffffffffffffffffffffff16815260200190815260200160002081905550613232816000808573ffffffffffffffffffffffffffffffffffffffff1673ffffffffffffffffffffffffffffffffffffffff1681526020019081526020016000205461296190919063ffffffff16565b6000808473ffffffffffffffffffffffffffffffffffffffff1673ffffffffffffffffffffffffffffffffffffffff168152602001908152602001600020819055508173ffffffffffffffffffffffffffffffffffffffff168373ffffffffffffffffffffffffffffffffffffffff167fddf252ad1be2c89b69c2b068fc378daa952ba7f163c4a11628f55a4df523b3ef836040516132d19190614170565b60405180910390a3505050565b6133788383836040516024016132f693929190613d9c565b6040516020818303038152906040527ffcec75e0000000000000000000000000000000000000000000000000000000007bffffffffffffffffffffffffffffffffffffffffffffffffffffffff19166020820180517bffffffffffffffffffffffffffffffffffffffffffffffffffffffff8381831617835250505050612dbb565b505050565b61341783838360405160240161339593929190613f86565b6040516020818303038152906040527f969cdd03000000000000000000000000000000000000000000000000000000007bffffffffffffffffffffffffffffffffffffffffffffffffffffffff19166020820180517bffffffffffffffffffffffffffffffffffffffffffffffffffffffff8381831617835250505050612dbb565b505050565b60606000600283600261342f9190614429565b6134399190614231565b67ffffffffffffffff8111156134525761345161472d565b5b6040519080825280601f01601f1916602001820160405280156134845781602001600182028036833780820191505090505b5090507f3000000000000000000000000000000000000000000000000000000000000000816000815181106134bc576134bb6146fe565b5b60200101907effffffffffffffffffffffffffffffffffffffffffffffffffffffffffffff1916908160001a9053507f7800000000000000000000000000000000000000000000000000000000000000816001815181106135205761351f6146fe565b5b60200101907effffffffffffffffffffffffffffffffffffffffffffffffffffffffffffff1916908160001a905350600060018460026135609190614429565b61356a9190614231565b90505b600181111561360a577f3031323334353637383961626364656600000000000000000000000000000000600f8616601081106135ac576135ab6146fe565b5b1a60f81b8282815181106135c3576135c26146fe565b5b60200101907effffffffffffffffffffffffffffffffffffffffffffffffffffffffffffff1916908160001a905350600485901c94508061360390614577565b905061356d565b506000841461364e576040517f08c379a000000000000000000000000000000000000000000000000000000000815260040161364590614010565b60405180910390fd5b8091505092915050565b600061366b613666846141d9565b6141b4565b90508281526020810184848401111561368757613686614761565b5b613692848285614535565b509392505050565b6000813590506136a981614aba565b92915050565b6000815190506136be81614ad1565b92915050565b6000813590506136d381614ae8565b92915050565b6000813590506136e881614aff565b92915050565b600082601f8301126137035761370261475c565b5b8135613713848260208601613658565b91505092915050565b60008135905061372b81614b16565b92915050565b6000602082840312156137475761374661476b565b5b60006137558482850161369a565b91505092915050565b600080604083850312156137755761377461476b565b5b60006137838582860161369a565b92505060206137948582860161369a565b9150509250929050565b6000806000606084860312156137b7576137b661476b565b5b60006137c58682870161369a565b93505060206137d68682870161369a565b92505060406137e78682870161371c565b9150509250925092565b600080604083850312156138085761380761476b565b5b60006138168582860161369a565b92505060206138278582860161371c565b9150509250929050565b6000602082840312156138475761384661476b565b5b6000613855848285016136af565b91505092915050565b6000602082840312156138745761387361476b565b5b6000613882848285016136c4565b91505092915050565b600080604083850312156138a2576138a161476b565b5b60006138b0858286016136c4565b92505060206138c18582860161369a565b9150509250929050565b6000602082840312156138e1576138e061476b565b5b60006138ef848285016136d9565b91505092915050565b6000806000606084860312156139115761391061476b565b5b600084013567ffffffffffffffff81111561392f5761392e614766565b5b61393b868287016136ee565b935050602061394c8682870161371c565b925050604061395d8682870161371c565b9150509250925092565b60006020828403121561397d5761397c61476b565b5b600061398b8482850161371c565b91505092915050565b600080604083850312156139ab576139aa61476b565b5b60006139b98582860161371c565b92505060206139ca8582860161371c565b9150509250929050565b6000806000606084860312156139ed576139ec61476b565b5b60006139fb8682870161371c565b9350506020613a0c8682870161371c565b9250506040613a1d8682870161371c565b9150509250925092565b613a30816144b7565b82525050565b613a47613a42826144b7565b61464d565b82525050565b613a56816144c9565b82525050565b613a65816144d5565b82525050565b6000613a768261420a565b613a808185614215565b9350613a90818560208601614544565b613a9981614770565b840191505092915050565b6000613aaf8261420a565b613ab98185614226565b9350613ac9818560208601614544565b80840191505092915050565b6000613ae2602083614215565b9150613aed8261479b565b602082019050919050565b6000613b05602383614215565b9150613b10826147c4565b604082019050919050565b6000613b28602683614215565b9150613b3382614813565b604082019050919050565b6000613b4b602283614215565b9150613b5682614862565b604082019050919050565b6000613b6e602983614215565b9150613b79826148b1565b604082019050919050565b6000613b91602883614215565b9150613b9c82614900565b604082019050919050565b6000613bb4602083614215565b9150613bbf8261494f565b602082019050919050565b6000613bd7602483614215565b9150613be282614978565b604082019050919050565b6000613bfa601783614226565b9150613c05826149c7565b601782019050919050565b6000613c1d601f83614215565b9150613c28826149f0565b602082019050919050565b6000613c40601183614226565b9150613c4b82614a19565b601182019050919050565b6000613c63602f83614215565b9150613c6e82614a42565b604082019050919050565b6000613c86601f83614215565b9150613c9182614a91565b602082019050919050565b613ca58161452b565b82525050565b6000613cb78284613a36565b60148201915081905092915050565b6000613cd182613bed565b9150613cdd8285613aa4565b9150613ce882613c33565b9150613cf48284613aa4565b91508190509392505050565b6000602082019050613d156000830184613a27565b92915050565b6000604082019050613d306000830185613a27565b613d3d6020830184613c9c565b9392505050565b6000602082019050613d596000830184613a4d565b92915050565b6000602082019050613d746000830184613a5c565b92915050565b60006020820190508181036000830152613d948184613a6b565b905092915050565b60006060820190508181036000830152613db68186613a6b565b9050613dc56020830185613a27565b613dd26040830184613a27565b949350505050565b60006040820190508181036000830152613df48185613a6b565b90508181036020830152613e088184613a6b565b90509392505050565b60006040820190508181036000830152613e2b8185613a6b565b9050613e3a6020830184613c9c565b9392505050565b60006060820190508181036000830152613e5b8186613a6b565b9050613e6a6020830185613c9c565b8181036040830152613e7c8184613a6b565b9050949350505050565b60006080820190508181036000830152613ea08187613a6b565b9050613eaf6020830186613c9c565b8181036040830152613ec18185613a6b565b9050613ed06060830184613a27565b95945050505050565b60006080820190508181036000830152613ef38187613a6b565b9050613f026020830186613c9c565b8181036040830152613f148185613a6b565b90508181036060830152613f288184613a6b565b905095945050505050565b60006080820190508181036000830152613f4d8187613a6b565b9050613f5c6020830186613c9c565b8181036040830152613f6e8185613a6b565b9050613f7d6060830184613c9c565b95945050505050565b60006060820190508181036000830152613fa08186613a6b565b9050613faf6020830185613c9c565b613fbc6040830184613c9c565b949350505050565b60006080820190508181036000830152613fde8187613a6b565b9050613fed6020830186613c9c565b613ffa6040830185613c9c565b6140076060830184613c9c565b95945050505050565b6000602082019050818103600083015261402981613ad5565b9050919050565b6000602082019050818103600083015261404981613af8565b9050919050565b6000602082019050818103600083015261406981613b1b565b9050919050565b6000602082019050818103600083015261408981613b3e565b9050919050565b600060208201905081810360008301526140a981613b61565b9050919050565b600060208201905081810360008301526140c981613b84565b9050919050565b600060208201905081810360008301526140e981613ba7565b9050919050565b6000602082019050818103600083015261410981613bca565b9050919050565b6000602082019050818103600083015261412981613c10565b9050919050565b6000602082019050818103600083015261414981613c56565b9050919050565b6000602082019050818103600083015261416981613c79565b9050919050565b60006020820190506141856000830184613c9c565b92915050565b60006040820190506141a06000830185613c9c565b6141ad6020830184613c9c565b9392505050565b60006141be6141cf565b90506141ca82826145d3565b919050565b6000604051905090565b600067ffffffffffffffff8211156141f4576141f361472d565b5b6141fd82614770565b9050602081019050919050565b600081519050919050565b600082825260208201905092915050565b600081905092915050565b600061423c8261452b565b91506142478361452b565b9250827fffffffffffffffffffffffffffffffffffffffffffffffffffffffffffffffff0382111561427c5761427b614671565b5b828201905092915050565b60006142928261452b565b915061429d8361452b565b9250826142ad576142ac6146a0565b5b828204905092915050565b6000808291508390505b6001851115614302578086048111156142de576142dd614671565b5b60018516156142ed5780820291505b80810290506142fb8561478e565b94506142c2565b94509492505050565b60006143168261452b565b91506143218361452b565b925061434e7fffffffffffffffffffffffffffffffffffffffffffffffffffffffffffffffff8484614356565b905092915050565b6000826143665760019050614422565b816143745760009050614422565b816001811461438a5760028114614394576143c3565b6001915050614422565b60ff8411156143a6576143a5614671565b5b8360020a9150848211156143bd576143bc614671565b5b50614422565b5060208310610133831016604e8410600b84101617156143f85782820a9050838111156143f3576143f2614671565b5b614422565b61440584848460016142b8565b9250905081840481111561441c5761441b614671565b5b81810290505b9392505050565b60006144348261452b565b915061443f8361452b565b9250817fffffffffffffffffffffffffffffffffffffffffffffffffffffffffffffffff048311821515161561447857614477614671565b5b828202905092915050565b600061448e8261452b565b91506144998361452b565b9250828210156144ac576144ab614671565b5b828203905092915050565b60006144c28261450b565b9050919050565b60008115159050919050565b6000819050919050565b60007fffffffff0000000000000000000000000000000000000000000000000000000082169050919050565b600073ffffffffffffffffffffffffffffffffffffffff82169050919050565b6000819050919050565b82818337600083830152505050565b60005b83811015614562578082015181840152602081019050614547565b83811115614571576000848401525b50505050565b60006145828261452b565b9150600082141561459657614595614671565b5b600182039050919050565b600060028204905060018216806145b957607f821691505b602082108114156145cd576145cc6146cf565b5b50919050565b6145dc82614770565b810181811067ffffffffffffffff821117156145fb576145fa61472d565b5b80604052505050565b600061460f8261452b565b91507fffffffffffffffffffffffffffffffffffffffffffffffffffffffffffffffff82141561464257614641614671565b5b600182019050919050565b60006146588261465f565b9050919050565b600061466a82614781565b9050919050565b7f4e487b7100000000000000000000000000000000000000000000000000000000600052601160045260246000fd5b7f4e487b7100000000000000000000000000000000000000000000000000000000600052601260045260246000fd5b7f4e487b7100000000000000000000000000000000000000000000000000000000600052602260045260246000fd5b7f4e487b7100000000000000000000000000000000000000000000000000000000600052603260045260246000fd5b7f4e487b7100000000000000000000000000000000000000000000000000000000600052604160045260246000fd5b600080fd5b600080fd5b600080fd5b600080fd5b6000601f19601f8301169050919050565b60008160601b9050919050565b60008160011c9050919050565b7f537472696e67733a20686578206c656e67746820696e73756666696369656e74600082015250565b7f45524332303a207472616e7366657220746f20746865207a65726f206164647260008201527f6573730000000000000000000000000000000000000000000000000000000000602082015250565b7f4f776e61626c653a206e6577206f776e657220697320746865207a65726f206160008201527f6464726573730000000000000000000000000000000000000000000000000000602082015250565b7f45524332303a20617070726f766520746f20746865207a65726f20616464726560008201527f7373000000000000000000000000000000000000000000000000000000000000602082015250565b7f64656d7572726167652073746172742074696d652068617320616c726561647960008201527f206265656e207365740000000000000000000000000000000000000000000000602082015250565b7f4e65772064656d7572726167652072617465206d75737420626520696e20746860008201527f6520667574757265000000000000000000000000000000000000000000000000602082015250565b7f4f776e61626c653a2063616c6c6572206973206e6f7420746865206f776e6572600082015250565b7f45524332303a20617070726f76652066726f6d20746865207a65726f2061646460008201527f7265737300000000000000000000000000000000000000000000000000000000602082015250565b7f416363657373436f6e74726f6c3a206163636f756e7420000000000000000000600082015250565b7f54696d657374616d70206d75737420626520696e207468652066757475726500600082015250565b7f206973206d697373696e6720726f6c6520000000000000000000000000000000600082015250565b7f416363657373436f6e74726f6c3a2063616e206f6e6c792072656e6f756e636560008201527f20726f6c657320666f722073656c660000000000000000000000000000000000602082015250565b7f45524332303a206d696e7420746f20746865207a65726f206164647265737300600082015250565b614ac3816144b7565b8114614ace57600080fd5b50565b614ada816144c9565b8114614ae557600080fd5b50565b614af1816144d5565b8114614afc57600080fd5b50565b614b08816144df565b8114614b1357600080fd5b50565b614b1f8161452b565b8114614b2a57600080fd5b5056fe3e3e3e2075706461746542616c616e63655769746844656d75727261676520666f72206163636f756e745570646174696e672064656d7572726167652066726f6d2c20746f2c206665653a5261746520686973746f727920696e6465782c20726174652c20737461727446726f6d2028646179732061676f293e3e3e205f636f6d7075746542616c616e63655769746844656d7572726167652c205f64656d75727261676552617465486973746f7279436f756e743a4c6173742074696d652062616c616e6365206368616e6765642028646179732061676f293aa26469706673582212206c5ca5d48f6718a68cbd6c2a4946b4d1b57a8aca8e5522117427dc83381c26db64736f6c63430008060033",
  "linkReferences": {},
  "deployedLinkReferences": {}
}