{
  "_format": "hh-sol-artifact-1",
  "contractName": "MiniDAOCoin",
  "sourceName": "contracts/MiniDAOCoin.sol",
  "abi": [
    {
      "inputs": [
        {
          "internalType": "address",
          "name": "admin1",
          "type": "address"
        },
        {
          "internalType": "address",
          "name": "admin2",
          "type": "address"
        }
      ],
      "stateMutability": "nonpayable",
      "type": "constructor"
    },
    {
      "anonymous": false,
      "inputs": [
        {
          "indexed": true,
          "internalType": "address",
          "name": "owner",
          "type": "address"
        },
        {
          "indexed": true,
          "internalType": "address",
          "name": "spender",
          "type": "address"
        },
        {
          "indexed": false,
          "internalType": "uint256",
          "name": "value",
          "type": "uint256"
        }
      ],
      "name": "Approval",
      "type": "event"
    },
    {
      "anonymous": false,
      "inputs": [
        {
          "indexed": false,
          "internalType": "address",
          "name": "admin",
          "type": "address"
        },
        {
          "indexed": false,
          "internalType": "uint32",
          "name": "expenseIndex",
          "type": "uint32"
        },
        {
          "indexed": true,
          "internalType": "address",
          "name": "fromAddress",
          "type": "address"
        },
        {
          "indexed": true,
          "internalType": "address",
          "name": "forAddress",
          "type": "address"
        },
        {
          "indexed": false,
          "internalType": "uint256",
          "name": "amount",
          "type": "uint256"
        },
        {
          "indexed": false,
          "internalType": "string",
          "name": "description",
          "type": "string"
        }
      ],
      "name": "ExpenseApproved",
      "type": "event"
    },
    {
      "anonymous": false,
      "inputs": [
        {
          "indexed": false,
          "internalType": "address",
          "name": "fromAddress",
          "type": "address"
        },
        {
          "indexed": false,
          "internalType": "address",
          "name": "forAddress",
          "type": "address"
        },
        {
          "indexed": false,
          "internalType": "uint256",
          "name": "amount",
          "type": "uint256"
        },
        {
          "indexed": false,
          "internalType": "string",
          "name": "description",
          "type": "string"
        }
      ],
      "name": "ExpenseSubmitted",
      "type": "event"
    },
    {
      "anonymous": false,
      "inputs": [
        {
          "indexed": true,
          "internalType": "address",
          "name": "from",
          "type": "address"
        },
        {
          "indexed": true,
          "internalType": "address",
          "name": "to",
          "type": "address"
        },
        {
          "indexed": false,
          "internalType": "uint256",
          "name": "value",
          "type": "uint256"
        }
      ],
      "name": "Transfer",
      "type": "event"
    },
    {
      "inputs": [
        {
          "internalType": "address",
          "name": "_user",
          "type": "address"
        }
      ],
      "name": "addAdmin",
      "outputs": [],
      "stateMutability": "nonpayable",
      "type": "function"
    },
    {
      "inputs": [],
      "name": "adminCount",
      "outputs": [
        {
          "internalType": "uint16",
          "name": "",
          "type": "uint16"
        }
      ],
      "stateMutability": "view",
      "type": "function"
    },
    {
      "inputs": [
        {
          "internalType": "address",
          "name": "owner",
          "type": "address"
        },
        {
          "internalType": "address",
          "name": "spender",
          "type": "address"
        }
      ],
      "name": "allowance",
      "outputs": [
        {
          "internalType": "uint256",
          "name": "",
          "type": "uint256"
        }
      ],
      "stateMutability": "view",
      "type": "function"
    },
    {
      "inputs": [
        {
          "internalType": "address",
          "name": "spender",
          "type": "address"
        },
        {
          "internalType": "uint256",
          "name": "amount",
          "type": "uint256"
        }
      ],
      "name": "approve",
      "outputs": [
        {
          "internalType": "bool",
          "name": "",
          "type": "bool"
        }
      ],
      "stateMutability": "nonpayable",
      "type": "function"
    },
    {
      "inputs": [
        {
          "internalType": "uint16",
          "name": "_expenseIndex",
          "type": "uint16"
        }
      ],
      "name": "approveExpense",
      "outputs": [],
      "stateMutability": "nonpayable",
      "type": "function"
    },
    {
      "inputs": [
        {
          "internalType": "address",
          "name": "account",
          "type": "address"
        }
      ],
      "name": "balanceOf",
      "outputs": [
        {
          "internalType": "uint256",
          "name": "",
          "type": "uint256"
        }
      ],
      "stateMutability": "view",
      "type": "function"
    },
    {
      "inputs": [],
      "name": "decimals",
      "outputs": [
        {
          "internalType": "uint8",
          "name": "",
          "type": "uint8"
        }
      ],
      "stateMutability": "view",
      "type": "function"
    },
    {
      "inputs": [
        {
          "internalType": "address",
          "name": "spender",
          "type": "address"
        },
        {
          "internalType": "uint256",
          "name": "subtractedValue",
          "type": "uint256"
        }
      ],
      "name": "decreaseAllowance",
      "outputs": [
        {
          "internalType": "bool",
          "name": "",
          "type": "bool"
        }
      ],
      "stateMutability": "nonpayable",
      "type": "function"
    },
    {
      "inputs": [
        {
          "internalType": "uint256",
          "name": "",
          "type": "uint256"
        }
      ],
      "name": "expenses",
      "outputs": [
        {
          "internalType": "address",
          "name": "fromAddress",
          "type": "address"
        },
        {
          "internalType": "address",
          "name": "forAddress",
          "type": "address"
        },
        {
          "internalType": "uint256",
          "name": "amount",
          "type": "uint256"
        },
        {
          "internalType": "string",
          "name": "description",
          "type": "string"
        },
        {
          "internalType": "address",
          "name": "coinAddress",
          "type": "address"
        },
        {
          "internalType": "uint256",
          "name": "date",
          "type": "uint256"
        },
        {
          "internalType": "string",
          "name": "ipfsHash",
          "type": "string"
        },
        {
          "internalType": "string",
          "name": "transactionHash",
          "type": "string"
        }
      ],
      "stateMutability": "view",
      "type": "function"
    },
    {
      "inputs": [
        {
          "internalType": "address",
          "name": "spender",
          "type": "address"
        },
        {
          "internalType": "uint256",
          "name": "addedValue",
          "type": "uint256"
        }
      ],
      "name": "increaseAllowance",
      "outputs": [
        {
          "internalType": "bool",
          "name": "",
          "type": "bool"
        }
      ],
      "stateMutability": "nonpayable",
      "type": "function"
    },
    {
      "inputs": [],
      "name": "name",
      "outputs": [
        {
          "internalType": "string",
          "name": "",
          "type": "string"
        }
      ],
      "stateMutability": "view",
      "type": "function"
    },
    {
      "inputs": [],
      "name": "pendingExpenses",
      "outputs": [
        {
          "internalType": "uint16",
          "name": "",
          "type": "uint16"
        }
      ],
      "stateMutability": "view",
      "type": "function"
    },
    {
      "inputs": [
        {
          "internalType": "address",
          "name": "_user",
          "type": "address"
        }
      ],
      "name": "removeAdmin",
      "outputs": [],
      "stateMutability": "nonpayable",
      "type": "function"
    },
    {
      "inputs": [
        {
          "internalType": "address",
          "name": "",
          "type": "address"
        }
      ],
      "name": "roles",
      "outputs": [
        {
          "internalType": "uint16",
          "name": "",
          "type": "uint16"
        }
      ],
      "stateMutability": "view",
      "type": "function"
    },
    {
      "inputs": [
        {
          "internalType": "string",
          "name": "_description",
          "type": "string"
        },
        {
          "internalType": "address",
          "name": "_coinAddress",
          "type": "address"
        },
        {
          "internalType": "uint256",
          "name": "_amount",
          "type": "uint256"
        },
        {
          "internalType": "address",
          "name": "_forAddress",
          "type": "address"
        },
        {
          "internalType": "string",
          "name": "_ipfsHash",
          "type": "string"
        }
      ],
      "name": "submitExpense",
      "outputs": [
        {
          "internalType": "uint32",
          "name": "",
          "type": "uint32"
        }
      ],
      "stateMutability": "payable",
      "type": "function"
    },
    {
      "inputs": [],
      "name": "symbol",
      "outputs": [
        {
          "internalType": "string",
          "name": "",
          "type": "string"
        }
      ],
      "stateMutability": "view",
      "type": "function"
    },
    {
      "inputs": [],
      "name": "totalSupply",
      "outputs": [
        {
          "internalType": "uint256",
          "name": "",
          "type": "uint256"
        }
      ],
      "stateMutability": "view",
      "type": "function"
    },
    {
      "inputs": [
        {
          "internalType": "address",
          "name": "recipient",
          "type": "address"
        },
        {
          "internalType": "uint256",
          "name": "amount",
          "type": "uint256"
        }
      ],
      "name": "transfer",
      "outputs": [
        {
          "internalType": "bool",
          "name": "",
          "type": "bool"
        }
      ],
      "stateMutability": "nonpayable",
      "type": "function"
    },
    {
      "inputs": [
        {
          "internalType": "address",
          "name": "sender",
          "type": "address"
        },
        {
          "internalType": "address",
          "name": "recipient",
          "type": "address"
        },
        {
          "internalType": "uint256",
          "name": "amount",
          "type": "uint256"
        }
      ],
      "name": "transferFrom",
      "outputs": [
        {
          "internalType": "bool",
          "name": "",
          "type": "bool"
        }
      ],
      "stateMutability": "nonpayable",
      "type": "function"
    },
    {
      "inputs": [
        {
          "internalType": "string",
          "name": "_type",
          "type": "string"
        },
        {
          "internalType": "uint256",
          "name": "_amount",
          "type": "uint256"
        }
      ],
      "name": "updateReward",
      "outputs": [],
      "stateMutability": "nonpayable",
      "type": "function"
    },
    {
      "inputs": [
        {
          "internalType": "uint256",
          "name": "",
          "type": "uint256"
        }
      ],
      "name": "wallets",
      "outputs": [
        {
          "internalType": "address",
          "name": "walletAddress",
          "type": "address"
        }
      ],
      "stateMutability": "view",
      "type": "function"
    }
  ],
  "bytecode": "0x60806040526012600a62000014919062000577565b6001620000229190620006b4565b6007556012600a62000035919062000577565b6002620000439190620006b4565b6008556000600a60026101000a81548161ffff021916908361ffff1602179055503480156200007157600080fd5b5060405162003ef338038062003ef3833981810160405281019062000097919062000432565b6040518060400160405280600c81526020017f436974697a656e20436f696e00000000000000000000000000000000000000008152506040518060400160405280600281526020017f434300000000000000000000000000000000000000000000000000000000000081525081600390805190602001906200011b9291906200036b565b508060049080519060200190620001349291906200036b565b5050508073ffffffffffffffffffffffffffffffffffffffff168273ffffffffffffffffffffffffffffffffffffffff161415620001a9576040517f08c379a0000000000000000000000000000000000000000000000000000000008152600401620001a090620004c7565b60405180910390fd5b600073ffffffffffffffffffffffffffffffffffffffff168273ffffffffffffffffffffffffffffffffffffffff1614156200021c576040517f08c379a00000000000000000000000000000000000000000000000000000000081526004016200021390620004e9565b60405180910390fd5b600073ffffffffffffffffffffffffffffffffffffffff168173ffffffffffffffffffffffffffffffffffffffff1614156200028f576040517f08c379a00000000000000000000000000000000000000000000000000000000081526004016200028690620004e9565b60405180910390fd5b6001600960008473ffffffffffffffffffffffffffffffffffffffff1673ffffffffffffffffffffffffffffffffffffffff16815260200190815260200160002060006101000a81548161ffff021916908361ffff1602179055506001600960008373ffffffffffffffffffffffffffffffffffffffff1673ffffffffffffffffffffffffffffffffffffffff16815260200190815260200160002060006101000a81548161ffff021916908361ffff1602179055506002600a60006101000a81548161ffff021916908361ffff160217905550505062000898565b828054620003799062000760565b90600052602060002090601f0160209004810192826200039d5760008555620003e9565b82601f10620003b857805160ff1916838001178555620003e9565b82800160010185558215620003e9579182015b82811115620003e8578251825591602001919060010190620003cb565b5b509050620003f89190620003fc565b5090565b5b8082111562000417576000816000905550600101620003fd565b5090565b6000815190506200042c816200087e565b92915050565b600080604083850312156200044c576200044b620007f4565b5b60006200045c858286016200041b565b92505060206200046f858286016200041b565b9150509250929050565b6000620004886020836200050b565b9150620004958262000806565b602082019050919050565b6000620004af6021836200050b565b9150620004bc826200082f565b604082019050919050565b60006020820190508181036000830152620004e28162000479565b9050919050565b600060208201905081810360008301526200050481620004a0565b9050919050565b600082825260208201905092915050565b6000808291508390505b60018511156200056e5780860481111562000546576200054562000796565b5b6001851615620005565780820291505b80810290506200056685620007f9565b945062000526565b94509492505050565b6000620005848262000749565b9150620005918362000753565b9250620005c07fffffffffffffffffffffffffffffffffffffffffffffffffffffffffffffffff8484620005c8565b905092915050565b600082620005da5760019050620006ad565b81620005ea5760009050620006ad565b81600181146200060357600281146200060e5762000644565b6001915050620006ad565b60ff84111562000623576200062262000796565b5b8360020a9150848211156200063d576200063c62000796565b5b50620006ad565b5060208310610133831016604e8410600b84101617156200067e5782820a90508381111562000678576200067762000796565b5b620006ad565b6200068d84848460016200051c565b92509050818404811115620006a757620006a662000796565b5b81810290505b9392505050565b6000620006c18262000749565b9150620006ce8362000749565b9250817fffffffffffffffffffffffffffffffffffffffffffffffffffffffffffffffff04831182151516156200070a576200070962000796565b5b828202905092915050565b6000620007228262000729565b9050919050565b600073ffffffffffffffffffffffffffffffffffffffff82169050919050565b6000819050919050565b600060ff82169050919050565b600060028204905060018216806200077957607f821691505b6020821081141562000790576200078f620007c5565b5b50919050565b7f4e487b7100000000000000000000000000000000000000000000000000000000600052601160045260246000fd5b7f4e487b7100000000000000000000000000000000000000000000000000000000600052602260045260246000fd5b600080fd5b60008160011c9050919050565b7f41646d696e206163636f756e7473206d75737420626520646966666572656e74600082015250565b7f506c656173652070726f766964652074776f2061646d696e206163636f756e7460008201527f7300000000000000000000000000000000000000000000000000000000000000602082015250565b620008898162000715565b81146200089557600080fd5b50565b61364b80620008a86000396000f3fe60806040526004361061012a5760003560e01c806370480275116100ab5780639aff665b1161006f5780639aff665b1461041f578063a457c2d714610448578063a9059cbb14610485578063af4afe0a146104c2578063dd62ed3e14610506578063e886a386146105435761012a565b8063704802751461031457806370a082311461033d5780637ad71f721461037a57806395d89b41146103b757806399374642146103e25761012a565b8063220aee4a116100f2578063220aee4a1461021b57806323b872dd146102445780632b7832b314610281578063313ce567146102ac57806339509351146102d75761012a565b806306fdde031461012f57806308cbe8da1461015a578063095ea7b31461018a5780631785f53c146101c757806318160ddd146101f0575b600080fd5b34801561013b57600080fd5b5061014461056e565b6040516101519190612a8a565b60405180910390f35b610174600480360381019061016f9190612393565b610600565b6040516101819190612d02565b60405180910390f35b34801561019657600080fd5b506101b160048036038101906101ac9190612353565b6109b3565b6040516101be9190612a6f565b60405180910390f35b3480156101d357600080fd5b506101ee60048036038101906101e99190612293565b6109d1565b005b3480156101fc57600080fd5b50610205610bc4565b6040516102129190612ce7565b60405180910390f35b34801561022757600080fd5b50610242600480360381019061023d9190612446565b610bce565b005b34801561025057600080fd5b5061026b60048036038101906102669190612300565b610d1f565b6040516102789190612a6f565b60405180910390f35b34801561028d57600080fd5b50610296610e17565b6040516102a39190612ccc565b60405180910390f35b3480156102b857600080fd5b506102c1610e2b565b6040516102ce9190612d1d565b60405180910390f35b3480156102e357600080fd5b506102fe60048036038101906102f99190612353565b610e34565b60405161030b9190612a6f565b60405180910390f35b34801561032057600080fd5b5061033b60048036038101906103369190612293565b610ee0565b005b34801561034957600080fd5b50610364600480360381019061035f9190612293565b6110a1565b6040516103719190612ce7565b60405180910390f35b34801561038657600080fd5b506103a1600480360381019061039c91906124cf565b6110e9565b6040516103ae9190612929565b60405180910390f35b3480156103c357600080fd5b506103cc611137565b6040516103d99190612a8a565b60405180910390f35b3480156103ee57600080fd5b5061040960048036038101906104049190612293565b6111c9565b6040516104169190612ccc565b60405180910390f35b34801561042b57600080fd5b50610446600480360381019061044191906124a2565b6111ea565b005b34801561045457600080fd5b5061046f600480360381019061046a9190612353565b61167d565b60405161047c9190612a6f565b60405180910390f35b34801561049157600080fd5b506104ac60048036038101906104a79190612353565b611768565b6040516104b99190612a6f565b60405180910390f35b3480156104ce57600080fd5b506104e960048036038101906104e491906124cf565b611786565b6040516104fd989796959493929190612990565b60405180910390f35b34801561051257600080fd5b5061052d600480360381019061052891906122c0565b6119d6565b60405161053a9190612ce7565b60405180910390f35b34801561054f57600080fd5b50610558611a5d565b6040516105659190612ccc565b60405180910390f35b60606003805461057d90612f45565b80601f01602080910402602001604051908101604052809291908181526020018280546105a990612f45565b80156105f65780601f106105cb576101008083540402835291602001916105f6565b820191906000526020600020905b8154815290600101906020018083116105d957829003601f168201915b5050505050905090565b60006003865111610646576040517f08c379a000000000000000000000000000000000000000000000000000000000815260040161063d90612bcc565b60405180910390fd5b60008411610689576040517f08c379a000000000000000000000000000000000000000000000000000000000815260040161068090612acc565b60405180910390fd5b600073ffffffffffffffffffffffffffffffffffffffff168373ffffffffffffffffffffffffffffffffffffffff1614156106f9576040517f08c379a00000000000000000000000000000000000000000000000000000000081526004016106f090612bac565b60405180910390fd5b606060006040518061012001604052803373ffffffffffffffffffffffffffffffffffffffff1681526020018673ffffffffffffffffffffffffffffffffffffffff1681526020018781526020018981526020018873ffffffffffffffffffffffffffffffffffffffff168152602001428152602001858152602001838152602001604051806020016040528060008152508152509050600581908060018154018082558091505060019003906000526020600020906009020160009091909190915060008201518160000160006101000a81548173ffffffffffffffffffffffffffffffffffffffff021916908373ffffffffffffffffffffffffffffffffffffffff16021790555060208201518160010160006101000a81548173ffffffffffffffffffffffffffffffffffffffff021916908373ffffffffffffffffffffffffffffffffffffffff1602179055506040820151816002015560608201518160030190805190602001906108709291906120b7565b5060808201518160040160006101000a81548173ffffffffffffffffffffffffffffffffffffffff021916908373ffffffffffffffffffffffffffffffffffffffff16021790555060a0820151816005015560c08201518160060190805190602001906108de9291906120b7565b5060e08201518160070190805190602001906108fb92919061213d565b506101008201518160080190805190602001906109199291906120b7565b505050600a600281819054906101000a900461ffff168092919061093c90612fa8565b91906101000a81548161ffff021916908361ffff160217905550507f046cd2e3434ccbc9a203d14791d22f438781822c89337517e49618a98eada3eb3386888b60405161098c9493929190612944565b60405180910390a160016005805490506109a69190612e20565b9250505095945050505050565b60006109c76109c0611a71565b8484611a79565b6001905092915050565b6001600960003373ffffffffffffffffffffffffffffffffffffffff1673ffffffffffffffffffffffffffffffffffffffff16815260200190815260200160002060009054906101000a900461ffff1661ffff1614610a65576040517f08c379a0000000000000000000000000000000000000000000000000000000008152600401610a5c90612b2c565b60405180910390fd5b3373ffffffffffffffffffffffffffffffffffffffff168173ffffffffffffffffffffffffffffffffffffffff161415610ad4576040517f08c379a0000000000000000000000000000000000000000000000000000000008152600401610acb90612c6c565b60405180910390fd5b6002600a60009054906101000a900461ffff1661ffff1611610b2b576040517f08c379a0000000000000000000000000000000000000000000000000000000008152600401610b2290612aec565b60405180910390fd5b6000600960008373ffffffffffffffffffffffffffffffffffffffff1673ffffffffffffffffffffffffffffffffffffffff16815260200190815260200160002060006101000a81548161ffff021916908361ffff160217905550600a600081819054906101000a900461ffff1680929190610ba690612f1b565b91906101000a81548161ffff021916908361ffff1602179055505050565b6000600254905090565b6001600960003373ffffffffffffffffffffffffffffffffffffffff1673ffffffffffffffffffffffffffffffffffffffff16815260200190815260200160002060009054906101000a900461ffff1661ffff1614610c62576040517f08c379a0000000000000000000000000000000000000000000000000000000008152600401610c5990612b2c565b60405180910390fd5b604051602001610c71906128ff565b6040516020818303038152906040528051906020012082604051602001610c9891906128e8565b604051602081830303815290604052805190602001201415610cc05780600781905550610d1b565b604051602001610ccf90612914565b6040516020818303038152906040528051906020012082604051602001610cf691906128e8565b604051602081830303815290604052805190602001201415610d1a57806008819055505b5b5050565b6000610d2c848484611c44565b6000600160008673ffffffffffffffffffffffffffffffffffffffff1673ffffffffffffffffffffffffffffffffffffffff1681526020019081526020016000206000610d77611a71565b73ffffffffffffffffffffffffffffffffffffffff1673ffffffffffffffffffffffffffffffffffffffff16815260200190815260200160002054905082811015610df7576040517f08c379a0000000000000000000000000000000000000000000000000000000008152600401610dee90612c0c565b60405180910390fd5b610e0b85610e03611a71565b858403611a79565b60019150509392505050565b600a60009054906101000a900461ffff1681565b60006012905090565b6000610ed6610e41611a71565b848460016000610e4f611a71565b73ffffffffffffffffffffffffffffffffffffffff1673ffffffffffffffffffffffffffffffffffffffff16815260200190815260200160002060008873ffffffffffffffffffffffffffffffffffffffff1673ffffffffffffffffffffffffffffffffffffffff16815260200190815260200160002054610ed19190612dca565b611a79565b6001905092915050565b6001600960003373ffffffffffffffffffffffffffffffffffffffff1673ffffffffffffffffffffffffffffffffffffffff16815260200190815260200160002060009054906101000a900461ffff1661ffff1614610f74576040517f08c379a0000000000000000000000000000000000000000000000000000000008152600401610f6b90612b2c565b60405180910390fd5b6000600960008373ffffffffffffffffffffffffffffffffffffffff1673ffffffffffffffffffffffffffffffffffffffff16815260200190815260200160002060009054906101000a900461ffff1661ffff1614611008576040517f08c379a0000000000000000000000000000000000000000000000000000000008152600401610fff90612b8c565b60405180910390fd5b6001600960008373ffffffffffffffffffffffffffffffffffffffff1673ffffffffffffffffffffffffffffffffffffffff16815260200190815260200160002060006101000a81548161ffff021916908361ffff160217905550600a600081819054906101000a900461ffff168092919061108390612fa8565b91906101000a81548161ffff021916908361ffff1602179055505050565b60008060008373ffffffffffffffffffffffffffffffffffffffff1673ffffffffffffffffffffffffffffffffffffffff168152602001908152602001600020549050919050565b600681815481106110f957600080fd5b90600052602060002090600202016000915090508060000160009054906101000a900473ffffffffffffffffffffffffffffffffffffffff16905081565b60606004805461114690612f45565b80601f016020809104026020016040519081016040528092919081815260200182805461117290612f45565b80156111bf5780601f10611194576101008083540402835291602001916111bf565b820191906000526020600020905b8154815290600101906020018083116111a257829003601f168201915b5050505050905090565b60096020528060005260406000206000915054906101000a900461ffff1681565b6001600960003373ffffffffffffffffffffffffffffffffffffffff1673ffffffffffffffffffffffffffffffffffffffff16815260200190815260200160002060009054906101000a900461ffff1661ffff161461127e576040517f08c379a000000000000000000000000000000000000000000000000000000000815260040161127590612b2c565b60405180910390fd5b60008161ffff161015801561129b57506005805490508161ffff16105b6112da576040517f08c379a00000000000000000000000000000000000000000000000000000000081526004016112d190612bec565b60405180910390fd5b61139160058261ffff16815481106112f5576112f461307a565b5b906000526020600020906009020160070180548060200260200160405190810160405280929190818152602001828054801561138657602002820191906000526020600020905b8160009054906101000a900473ffffffffffffffffffffffffffffffffffffffff1673ffffffffffffffffffffffffffffffffffffffff168152602001906001019080831161133c575b505050505033611ec5565b6113d0576040517f08c379a00000000000000000000000000000000000000000000000000000000081526004016113c790612b0c565b60405180910390fd5b60058161ffff16815481106113e8576113e761307a565b5b9060005260206000209060090201600701339080600181540180825580915050600190039060005260206000200160009091909190916101000a81548173ffffffffffffffffffffffffffffffffffffffff021916908373ffffffffffffffffffffffffffffffffffffffff16021790555061146633600754611f4d565b600160058261ffff16815481106114805761147f61307a565b5b906000526020600020906009020160070180549050141561152c57600a600281819054906101000a900461ffff16809291906114bb90612f1b565b91906101000a81548161ffff021916908361ffff1602179055505061152b60058261ffff16815481106114f1576114f061307a565b5b906000526020600020906009020160000160009054906101000a900473ffffffffffffffffffffffffffffffffffffffff16600854611f4d565b5b60058161ffff16815481106115445761154361307a565b5b906000526020600020906009020160010160009054906101000a900473ffffffffffffffffffffffffffffffffffffffff1673ffffffffffffffffffffffffffffffffffffffff1660058261ffff16815481106115a4576115a361307a565b5b906000526020600020906009020160000160009054906101000a900473ffffffffffffffffffffffffffffffffffffffff1673ffffffffffffffffffffffffffffffffffffffff167f345b19f4547c9e88922578ec680b6298d7e665d9a7d5ee90437393feb4c069f6338460058661ffff16815481106116275761162661307a565b5b90600052602060002090600902016002015460058761ffff16815481106116515761165061307a565b5b90600052602060002090600902016003016040516116729493929190612a23565b60405180910390a350565b6000806001600061168c611a71565b73ffffffffffffffffffffffffffffffffffffffff1673ffffffffffffffffffffffffffffffffffffffff16815260200190815260200160002060008573ffffffffffffffffffffffffffffffffffffffff1673ffffffffffffffffffffffffffffffffffffffff16815260200190815260200160002054905082811015611749576040517f08c379a000000000000000000000000000000000000000000000000000000000815260040161174090612c8c565b60405180910390fd5b61175d611754611a71565b85858403611a79565b600191505092915050565b600061177c611775611a71565b8484611c44565b6001905092915050565b6005818154811061179657600080fd5b90600052602060002090600902016000915090508060000160009054906101000a900473ffffffffffffffffffffffffffffffffffffffff16908060010160009054906101000a900473ffffffffffffffffffffffffffffffffffffffff169080600201549080600301805461180b90612f45565b80601f016020809104026020016040519081016040528092919081815260200182805461183790612f45565b80156118845780601f1061185957610100808354040283529160200191611884565b820191906000526020600020905b81548152906001019060200180831161186757829003601f168201915b5050505050908060040160009054906101000a900473ffffffffffffffffffffffffffffffffffffffff16908060050154908060060180546118c590612f45565b80601f01602080910402602001604051908101604052809291908181526020018280546118f190612f45565b801561193e5780601f106119135761010080835404028352916020019161193e565b820191906000526020600020905b81548152906001019060200180831161192157829003601f168201915b50505050509080600801805461195390612f45565b80601f016020809104026020016040519081016040528092919081815260200182805461197f90612f45565b80156119cc5780601f106119a1576101008083540402835291602001916119cc565b820191906000526020600020905b8154815290600101906020018083116119af57829003601f168201915b5050505050905088565b6000600160008473ffffffffffffffffffffffffffffffffffffffff1673ffffffffffffffffffffffffffffffffffffffff16815260200190815260200160002060008373ffffffffffffffffffffffffffffffffffffffff1673ffffffffffffffffffffffffffffffffffffffff16815260200190815260200160002054905092915050565b600a60029054906101000a900461ffff1681565b600033905090565b600073ffffffffffffffffffffffffffffffffffffffff168373ffffffffffffffffffffffffffffffffffffffff161415611ae9576040517f08c379a0000000000000000000000000000000000000000000000000000000008152600401611ae090612c4c565b60405180910390fd5b600073ffffffffffffffffffffffffffffffffffffffff168273ffffffffffffffffffffffffffffffffffffffff161415611b59576040517f08c379a0000000000000000000000000000000000000000000000000000000008152600401611b5090612b4c565b60405180910390fd5b80600160008573ffffffffffffffffffffffffffffffffffffffff1673ffffffffffffffffffffffffffffffffffffffff16815260200190815260200160002060008473ffffffffffffffffffffffffffffffffffffffff1673ffffffffffffffffffffffffffffffffffffffff168152602001908152602001600020819055508173ffffffffffffffffffffffffffffffffffffffff168373ffffffffffffffffffffffffffffffffffffffff167f8c5be1e5ebec7d5bd14f71427d1e84f3dd0314c0f7b2291e5b200ac8c7c3b92583604051611c379190612ce7565b60405180910390a3505050565b600073ffffffffffffffffffffffffffffffffffffffff168373ffffffffffffffffffffffffffffffffffffffff161415611cb4576040517f08c379a0000000000000000000000000000000000000000000000000000000008152600401611cab90612c2c565b60405180910390fd5b600073ffffffffffffffffffffffffffffffffffffffff168273ffffffffffffffffffffffffffffffffffffffff161415611d24576040517f08c379a0000000000000000000000000000000000000000000000000000000008152600401611d1b90612aac565b60405180910390fd5b611d2f8383836120ad565b60008060008573ffffffffffffffffffffffffffffffffffffffff1673ffffffffffffffffffffffffffffffffffffffff16815260200190815260200160002054905081811015611db5576040517f08c379a0000000000000000000000000000000000000000000000000000000008152600401611dac90612b6c565b60405180910390fd5b8181036000808673ffffffffffffffffffffffffffffffffffffffff1673ffffffffffffffffffffffffffffffffffffffff16815260200190815260200160002081905550816000808573ffffffffffffffffffffffffffffffffffffffff1673ffffffffffffffffffffffffffffffffffffffff1681526020019081526020016000206000828254611e489190612dca565b925050819055508273ffffffffffffffffffffffffffffffffffffffff168473ffffffffffffffffffffffffffffffffffffffff167fddf252ad1be2c89b69c2b068fc378daa952ba7f163c4a11628f55a4df523b3ef84604051611eac9190612ce7565b60405180910390a3611ebf8484846120b2565b50505050565b600080600090505b8351811015611f41578273ffffffffffffffffffffffffffffffffffffffff16848281518110611f0057611eff61307a565b5b602002602001015173ffffffffffffffffffffffffffffffffffffffff161415611f2e576001915050611f47565b8080611f3990612fd3565b915050611ecd565b50600090505b92915050565b600073ffffffffffffffffffffffffffffffffffffffff168273ffffffffffffffffffffffffffffffffffffffff161415611fbd576040517f08c379a0000000000000000000000000000000000000000000000000000000008152600401611fb490612cac565b60405180910390fd5b611fc9600083836120ad565b8060026000828254611fdb9190612dca565b92505081905550806000808473ffffffffffffffffffffffffffffffffffffffff1673ffffffffffffffffffffffffffffffffffffffff16815260200190815260200160002060008282546120309190612dca565b925050819055508173ffffffffffffffffffffffffffffffffffffffff16600073ffffffffffffffffffffffffffffffffffffffff167fddf252ad1be2c89b69c2b068fc378daa952ba7f163c4a11628f55a4df523b3ef836040516120959190612ce7565b60405180910390a36120a9600083836120b2565b5050565b505050565b505050565b8280546120c390612f45565b90600052602060002090601f0160209004810192826120e5576000855561212c565b82601f106120fe57805160ff191683800117855561212c565b8280016001018555821561212c579182015b8281111561212b578251825591602001919060010190612110565b5b50905061213991906121c7565b5090565b8280548282559060005260206000209081019282156121b6579160200282015b828111156121b55782518260006101000a81548173ffffffffffffffffffffffffffffffffffffffff021916908373ffffffffffffffffffffffffffffffffffffffff1602179055509160200191906001019061215d565b5b5090506121c391906121c7565b5090565b5b808211156121e05760008160009055506001016121c8565b5090565b60006121f76121f284612d5d565b612d38565b905082815260208101848484011115612213576122126130dd565b5b61221e848285612ed9565b509392505050565b600081359050612235816135d0565b92915050565b600082601f8301126122505761224f6130d8565b5b81356122608482602086016121e4565b91505092915050565b600081359050612278816135e7565b92915050565b60008135905061228d816135fe565b92915050565b6000602082840312156122a9576122a86130e7565b5b60006122b784828501612226565b91505092915050565b600080604083850312156122d7576122d66130e7565b5b60006122e585828601612226565b92505060206122f685828601612226565b9150509250929050565b600080600060608486031215612319576123186130e7565b5b600061232786828701612226565b935050602061233886828701612226565b92505060406123498682870161227e565b9150509250925092565b6000806040838503121561236a576123696130e7565b5b600061237885828601612226565b92505060206123898582860161227e565b9150509250929050565b600080600080600060a086880312156123af576123ae6130e7565b5b600086013567ffffffffffffffff8111156123cd576123cc6130e2565b5b6123d98882890161223b565b95505060206123ea88828901612226565b94505060406123fb8882890161227e565b935050606061240c88828901612226565b925050608086013567ffffffffffffffff81111561242d5761242c6130e2565b5b6124398882890161223b565b9150509295509295909350565b6000806040838503121561245d5761245c6130e7565b5b600083013567ffffffffffffffff81111561247b5761247a6130e2565b5b6124878582860161223b565b92505060206124988582860161227e565b9150509250929050565b6000602082840312156124b8576124b76130e7565b5b60006124c684828501612269565b91505092915050565b6000602082840312156124e5576124e46130e7565b5b60006124f38482850161227e565b91505092915050565b61250581612e54565b82525050565b61251481612e66565b82525050565b600061252582612da3565b61252f8185612dae565b935061253f818560208601612ee8565b612548816130ec565b840191505092915050565b600061255e82612da3565b6125688185612dbf565b9350612578818560208601612ee8565b80840191505092915050565b6000815461259181612f45565b61259b8186612dae565b945060018216600081146125b657600181146125c8576125fb565b60ff19831686526020860193506125fb565b6125d185612d8e565b60005b838110156125f3578154818901526001820191506020810190506125d4565b808801955050505b50505092915050565b6000612611602383612dae565b915061261c826130fd565b604082019050919050565b6000612634602883612dae565b915061263f8261314c565b604082019050919050565b6000612657601a83612dae565b91506126628261319b565b602082019050919050565b600061267a602183612dae565b9150612685826131c4565b604082019050919050565b600061269d601083612dae565b91506126a882613213565b602082019050919050565b60006126c0602283612dae565b91506126cb8261323c565b604082019050919050565b60006126e3602683612dae565b91506126ee8261328b565b604082019050919050565b6000612706601b83612dae565b9150612711826132da565b602082019050919050565b6000612729602383612dae565b915061273482613303565b604082019050919050565b600061274c602383612dae565b915061275782613352565b604082019050919050565b600061276f601583612dae565b915061277a826133a1565b602082019050919050565b6000612792602883612dae565b915061279d826133ca565b604082019050919050565b60006127b5600983612dbf565b91506127c082613419565b600982019050919050565b60006127d8602583612dae565b91506127e382613442565b604082019050919050565b60006127fb602483612dae565b915061280682613491565b604082019050919050565b600061281e602283612dae565b9150612829826134e0565b604082019050919050565b6000612841600a83612dbf565b915061284c8261352f565b600a82019050919050565b6000612864602583612dae565b915061286f82613558565b604082019050919050565b6000612887601f83612dae565b9150612892826135a7565b602082019050919050565b6128a681612e72565b82525050565b6128b581612ec7565b82525050565b6128c481612ea0565b82525050565b6128d381612eaa565b82525050565b6128e281612eba565b82525050565b60006128f48284612553565b915081905092915050565b600061290a826127a8565b9150819050919050565b600061291f82612834565b9150819050919050565b600060208201905061293e60008301846124fc565b92915050565b600060808201905061295960008301876124fc565b61296660208301866124fc565b61297360408301856128bb565b8181036060830152612985818461251a565b905095945050505050565b6000610100820190506129a6600083018b6124fc565b6129b3602083018a6124fc565b6129c060408301896128bb565b81810360608301526129d2818861251a565b90506129e160808301876124fc565b6129ee60a08301866128bb565b81810360c0830152612a00818561251a565b905081810360e0830152612a14818461251a565b90509998505050505050505050565b6000608082019050612a3860008301876124fc565b612a4560208301866128ac565b612a5260408301856128bb565b8181036060830152612a648184612584565b905095945050505050565b6000602082019050612a84600083018461250b565b92915050565b60006020820190508181036000830152612aa4818461251a565b905092915050565b60006020820190508181036000830152612ac581612604565b9050919050565b60006020820190508181036000830152612ae581612627565b9050919050565b60006020820190508181036000830152612b058161264a565b9050919050565b60006020820190508181036000830152612b258161266d565b9050919050565b60006020820190508181036000830152612b4581612690565b9050919050565b60006020820190508181036000830152612b65816126b3565b9050919050565b60006020820190508181036000830152612b85816126d6565b9050919050565b60006020820190508181036000830152612ba5816126f9565b9050919050565b60006020820190508181036000830152612bc58161271c565b9050919050565b60006020820190508181036000830152612be58161273f565b9050919050565b60006020820190508181036000830152612c0581612762565b9050919050565b60006020820190508181036000830152612c2581612785565b9050919050565b60006020820190508181036000830152612c45816127cb565b9050919050565b60006020820190508181036000830152612c65816127ee565b9050919050565b60006020820190508181036000830152612c8581612811565b9050919050565b60006020820190508181036000830152612ca581612857565b9050919050565b60006020820190508181036000830152612cc58161287a565b9050919050565b6000602082019050612ce1600083018461289d565b92915050565b6000602082019050612cfc60008301846128bb565b92915050565b6000602082019050612d1760008301846128ca565b92915050565b6000602082019050612d3260008301846128d9565b92915050565b6000612d42612d53565b9050612d4e8282612f77565b919050565b6000604051905090565b600067ffffffffffffffff821115612d7857612d776130a9565b5b612d81826130ec565b9050602081019050919050565b60008190508160005260206000209050919050565b600081519050919050565b600082825260208201905092915050565b600081905092915050565b6000612dd582612ea0565b9150612de083612ea0565b9250827fffffffffffffffffffffffffffffffffffffffffffffffffffffffffffffffff03821115612e1557612e1461301c565b5b828201905092915050565b6000612e2b82612ea0565b9150612e3683612ea0565b925082821015612e4957612e4861301c565b5b828203905092915050565b6000612e5f82612e80565b9050919050565b60008115159050919050565b600061ffff82169050919050565b600073ffffffffffffffffffffffffffffffffffffffff82169050919050565b6000819050919050565b600063ffffffff82169050919050565b600060ff82169050919050565b6000612ed282612e72565b9050919050565b82818337600083830152505050565b60005b83811015612f06578082015181840152602081019050612eeb565b83811115612f15576000848401525b50505050565b6000612f2682612e72565b91506000821415612f3a57612f3961301c565b5b600182039050919050565b60006002820490506001821680612f5d57607f821691505b60208210811415612f7157612f7061304b565b5b50919050565b612f80826130ec565b810181811067ffffffffffffffff82111715612f9f57612f9e6130a9565b5b80604052505050565b6000612fb382612e72565b915061ffff821415612fc857612fc761301c565b5b600182019050919050565b6000612fde82612ea0565b91507fffffffffffffffffffffffffffffffffffffffffffffffffffffffffffffffff8214156130115761301061301c565b5b600182019050919050565b7f4e487b7100000000000000000000000000000000000000000000000000000000600052601160045260246000fd5b7f4e487b7100000000000000000000000000000000000000000000000000000000600052602260045260246000fd5b7f4e487b7100000000000000000000000000000000000000000000000000000000600052603260045260246000fd5b7f4e487b7100000000000000000000000000000000000000000000000000000000600052604160045260246000fd5b600080fd5b600080fd5b600080fd5b600080fd5b6000601f19601f8301169050919050565b7f45524332303a207472616e7366657220746f20746865207a65726f206164647260008201527f6573730000000000000000000000000000000000000000000000000000000000602082015250565b7f657870656e736520616d6f756e74206d7573742062652067726561746572207460008201527f68616e207a65726f000000000000000000000000000000000000000000000000602082015250565b7f796f75206e656564206174206c6561737420322061646d696e73000000000000600082015250565b7f796f7520616c726561647920617070726f766564207468697320657870656e7360008201527f6500000000000000000000000000000000000000000000000000000000000000602082015250565b7f6d75737420626520616e2061646d696e00000000000000000000000000000000600082015250565b7f45524332303a20617070726f766520746f20746865207a65726f20616464726560008201527f7373000000000000000000000000000000000000000000000000000000000000602082015250565b7f45524332303a207472616e7366657220616d6f756e742065786365656473206260008201527f616c616e63650000000000000000000000000000000000000000000000000000602082015250565b7f7573657220616c7265616479206861732061646d696e20726f6c650000000000600082015250565b7f706c656173652070726f7669646520616e206164647265737320746f2070617960008201527f20746f0000000000000000000000000000000000000000000000000000000000602082015250565b7f706c656173652070726f7669646520612070726f70657220646573637269707460008201527f696f6e0000000000000000000000000000000000000000000000000000000000602082015250565b7f696e76616c696420657870656e736520696e6465780000000000000000000000600082015250565b7f45524332303a207472616e7366657220616d6f756e742065786365656473206160008201527f6c6c6f77616e6365000000000000000000000000000000000000000000000000602082015250565b7f617070726f76696e670000000000000000000000000000000000000000000000600082015250565b7f45524332303a207472616e736665722066726f6d20746865207a65726f20616460008201527f6472657373000000000000000000000000000000000000000000000000000000602082015250565b7f45524332303a20617070726f76652066726f6d20746865207a65726f2061646460008201527f7265737300000000000000000000000000000000000000000000000000000000602082015250565b7f63616e6e6f742072656d6f766520796f757273656c6620617320616e2061646d60008201527f696e000000000000000000000000000000000000000000000000000000000000602082015250565b7f7375626d697474696e6700000000000000000000000000000000000000000000600082015250565b7f45524332303a2064656372656173656420616c6c6f77616e63652062656c6f7760008201527f207a65726f000000000000000000000000000000000000000000000000000000602082015250565b7f45524332303a206d696e7420746f20746865207a65726f206164647265737300600082015250565b6135d981612e54565b81146135e457600080fd5b50565b6135f081612e72565b81146135fb57600080fd5b50565b61360781612ea0565b811461361257600080fd5b5056fea2646970667358221220249a933c2c17bd6bfec2172613547635dc4cb9d8663839e73b1a97e72d3614f064736f6c63430008060033",
  "linkReferences": {},
  "deployedLinkReferences": {}
}